{
  "_format": "hh-sol-artifact-1",
  "contractName": "MediaNFTMarketplace",
  "sourceName": "contracts/MediaNFTMarketplace.sol",
  "abi": [
    {
      "inputs": [
        {
          "internalType": "address",
          "name": "initialOwner",
          "type": "address"
        }
      ],
      "stateMutability": "nonpayable",
      "type": "constructor"
    },
    {
      "inputs": [
        {
          "internalType": "address",
          "name": "sender",
          "type": "address"
        },
        {
          "internalType": "uint256",
          "name": "tokenId",
          "type": "uint256"
        },
        {
          "internalType": "address",
          "name": "owner",
          "type": "address"
        }
      ],
      "name": "ERC721IncorrectOwner",
      "type": "error"
    },
    {
      "inputs": [
        {
          "internalType": "address",
          "name": "operator",
          "type": "address"
        },
        {
          "internalType": "uint256",
          "name": "tokenId",
          "type": "uint256"
        }
      ],
      "name": "ERC721InsufficientApproval",
      "type": "error"
    },
    {
      "inputs": [
        {
          "internalType": "address",
          "name": "approver",
          "type": "address"
        }
      ],
      "name": "ERC721InvalidApprover",
      "type": "error"
    },
    {
      "inputs": [
        {
          "internalType": "address",
          "name": "operator",
          "type": "address"
        }
      ],
      "name": "ERC721InvalidOperator",
      "type": "error"
    },
    {
      "inputs": [
        {
          "internalType": "address",
          "name": "owner",
          "type": "address"
        }
      ],
      "name": "ERC721InvalidOwner",
      "type": "error"
    },
    {
      "inputs": [
        {
          "internalType": "address",
          "name": "receiver",
          "type": "address"
        }
      ],
      "name": "ERC721InvalidReceiver",
      "type": "error"
    },
    {
      "inputs": [
        {
          "internalType": "address",
          "name": "sender",
          "type": "address"
        }
      ],
      "name": "ERC721InvalidSender",
      "type": "error"
    },
    {
      "inputs": [
        {
          "internalType": "uint256",
          "name": "tokenId",
          "type": "uint256"
        }
      ],
      "name": "ERC721NonexistentToken",
      "type": "error"
    },
    {
      "inputs": [
        {
          "internalType": "address",
          "name": "owner",
          "type": "address"
        }
      ],
      "name": "OwnableInvalidOwner",
      "type": "error"
    },
    {
      "inputs": [
        {
          "internalType": "address",
          "name": "account",
          "type": "address"
        }
      ],
      "name": "OwnableUnauthorizedAccount",
      "type": "error"
    },
    {
      "inputs": [],
      "name": "ReentrancyGuardReentrantCall",
      "type": "error"
    },
    {
      "anonymous": false,
      "inputs": [
        {
          "indexed": true,
          "internalType": "address",
          "name": "owner",
          "type": "address"
        },
        {
          "indexed": true,
          "internalType": "address",
          "name": "approved",
          "type": "address"
        },
        {
          "indexed": true,
          "internalType": "uint256",
          "name": "tokenId",
          "type": "uint256"
        }
      ],
      "name": "Approval",
      "type": "event"
    },
    {
      "anonymous": false,
      "inputs": [
        {
          "indexed": true,
          "internalType": "address",
          "name": "owner",
          "type": "address"
        },
        {
          "indexed": true,
          "internalType": "address",
          "name": "operator",
          "type": "address"
        },
        {
          "indexed": false,
          "internalType": "bool",
          "name": "approved",
          "type": "bool"
        }
      ],
      "name": "ApprovalForAll",
      "type": "event"
    },
    {
      "anonymous": false,
      "inputs": [
        {
          "indexed": true,
          "internalType": "uint256",
          "name": "tokenId",
          "type": "uint256"
        },
        {
          "indexed": true,
          "internalType": "address",
          "name": "licensee",
          "type": "address"
        },
        {
          "indexed": false,
          "internalType": "enum MediaNFTMarketplace.LicenseType",
          "name": "licenseType",
          "type": "uint8"
        },
        {
          "indexed": false,
          "internalType": "uint256",
          "name": "expirationTime",
          "type": "uint256"
        }
      ],
      "name": "LicenseGranted",
      "type": "event"
    },
    {
      "anonymous": false,
      "inputs": [
        {
          "indexed": true,
          "internalType": "uint256",
          "name": "tokenId",
          "type": "uint256"
        },
        {
          "indexed": false,
          "internalType": "uint256",
          "name": "price",
          "type": "uint256"
        }
      ],
      "name": "MediaListed",
      "type": "event"
    },
    {
      "anonymous": false,
      "inputs": [
        {
          "indexed": true,
          "internalType": "uint256",
          "name": "tokenId",
          "type": "uint256"
        },
        {
          "indexed": true,
          "internalType": "address",
          "name": "creator",
          "type": "address"
        },
        {
          "indexed": false,
          "internalType": "string",
          "name": "contentHash",
          "type": "string"
        }
      ],
      "name": "MediaMinted",
      "type": "event"
    },
    {
      "anonymous": false,
      "inputs": [
        {
          "indexed": true,
          "internalType": "uint256",
          "name": "tokenId",
          "type": "uint256"
        },
        {
          "indexed": true,
          "internalType": "address",
          "name": "buyer",
          "type": "address"
        },
        {
          "indexed": false,
          "internalType": "uint256",
          "name": "price",
          "type": "uint256"
        }
      ],
      "name": "MediaSold",
      "type": "event"
    },
    {
      "anonymous": false,
      "inputs": [
        {
          "indexed": true,
          "internalType": "address",
          "name": "previousOwner",
          "type": "address"
        },
        {
          "indexed": true,
          "internalType": "address",
          "name": "newOwner",
          "type": "address"
        }
      ],
      "name": "OwnershipTransferred",
      "type": "event"
    },
    {
      "anonymous": false,
      "inputs": [
        {
          "indexed": true,
          "internalType": "uint256",
          "name": "tokenId",
          "type": "uint256"
        },
        {
          "indexed": true,
          "internalType": "address",
          "name": "creator",
          "type": "address"
        },
        {
          "indexed": false,
          "internalType": "uint256",
          "name": "amount",
          "type": "uint256"
        }
      ],
      "name": "RoyaltyPaid",
      "type": "event"
    },
    {
      "anonymous": false,
      "inputs": [
        {
          "indexed": true,
          "internalType": "address",
          "name": "from",
          "type": "address"
        },
        {
          "indexed": true,
          "internalType": "address",
          "name": "to",
          "type": "address"
        },
        {
          "indexed": true,
          "internalType": "uint256",
          "name": "tokenId",
          "type": "uint256"
        }
      ],
      "name": "Transfer",
      "type": "event"
    },
    {
      "inputs": [
        {
          "internalType": "address",
          "name": "to",
          "type": "address"
        },
        {
          "internalType": "uint256",
          "name": "tokenId",
          "type": "uint256"
        }
      ],
      "name": "approve",
      "outputs": [],
      "stateMutability": "nonpayable",
      "type": "function"
    },
    {
      "inputs": [
        {
          "internalType": "address",
          "name": "owner",
          "type": "address"
        }
      ],
      "name": "balanceOf",
      "outputs": [
        {
          "internalType": "uint256",
          "name": "",
          "type": "uint256"
        }
      ],
      "stateMutability": "view",
      "type": "function"
    },
    {
      "inputs": [
        {
          "internalType": "uint256",
          "name": "tokenId",
          "type": "uint256"
        }
      ],
      "name": "buyNFT",
      "outputs": [],
      "stateMutability": "payable",
      "type": "function"
    },
    {
      "inputs": [
        {
          "internalType": "address",
          "name": "",
          "type": "address"
        },
        {
          "internalType": "uint256",
          "name": "",
          "type": "uint256"
        }
      ],
      "name": "creatorAssets",
      "outputs": [
        {
          "internalType": "uint256",
          "name": "",
          "type": "uint256"
        }
      ],
      "stateMutability": "view",
      "type": "function"
    },
    {
      "inputs": [],
      "name": "emergencyWithdraw",
      "outputs": [],
      "stateMutability": "nonpayable",
      "type": "function"
    },
    {
      "inputs": [
        {
          "internalType": "uint256",
          "name": "tokenId",
          "type": "uint256"
        }
      ],
      "name": "getApproved",
      "outputs": [
        {
          "internalType": "address",
          "name": "",
          "type": "address"
        }
      ],
      "stateMutability": "view",
      "type": "function"
    },
    {
      "inputs": [
        {
          "internalType": "address",
          "name": "creator",
          "type": "address"
        }
      ],
      "name": "getCreatorAssets",
      "outputs": [
        {
          "internalType": "uint256[]",
          "name": "",
          "type": "uint256[]"
        }
      ],
      "stateMutability": "view",
      "type": "function"
    },
    {
      "inputs": [
        {
          "internalType": "uint256",
          "name": "tokenId",
          "type": "uint256"
        }
      ],
      "name": "getMediaAsset",
      "outputs": [
        {
          "components": [
            {
              "internalType": "string",
              "name": "contentHash",
              "type": "string"
            },
            {
              "internalType": "string",
              "name": "ipfsHash",
              "type": "string"
            },
            {
              "internalType": "string",
              "name": "metadata",
              "type": "string"
            },
            {
              "internalType": "address",
              "name": "creator",
              "type": "address"
            },
            {
              "internalType": "uint256",
              "name": "createdAt",
              "type": "uint256"
            },
            {
              "internalType": "bool",
              "name": "isForSale",
              "type": "bool"
            },
            {
              "internalType": "uint256",
              "name": "price",
              "type": "uint256"
            },
            {
              "internalType": "uint256",
              "name": "royaltyPercentage",
              "type": "uint256"
            }
          ],
          "internalType": "struct MediaNFTMarketplace.MediaAsset",
          "name": "",
          "type": "tuple"
        }
      ],
      "stateMutability": "view",
      "type": "function"
    },
    {
      "inputs": [
        {
          "internalType": "uint256",
          "name": "tokenId",
          "type": "uint256"
        }
      ],
      "name": "getTokenLicenses",
      "outputs": [
        {
          "components": [
            {
              "internalType": "address",
              "name": "licensee",
              "type": "address"
            },
            {
              "internalType": "uint256",
              "name": "tokenId",
              "type": "uint256"
            },
            {
              "internalType": "enum MediaNFTMarketplace.LicenseType",
              "name": "licenseType",
              "type": "uint8"
            },
            {
              "internalType": "uint256",
              "name": "expirationTime",
              "type": "uint256"
            },
            {
              "internalType": "uint256",
              "name": "price",
              "type": "uint256"
            },
            {
              "internalType": "bool",
              "name": "isActive",
              "type": "bool"
            }
          ],
          "internalType": "struct MediaNFTMarketplace.License[]",
          "name": "",
          "type": "tuple[]"
        }
      ],
      "stateMutability": "view",
      "type": "function"
    },
    {
      "inputs": [
        {
          "internalType": "uint256",
          "name": "tokenId",
          "type": "uint256"
        },
        {
          "internalType": "address",
          "name": "licensee",
          "type": "address"
        },
        {
          "internalType": "enum MediaNFTMarketplace.LicenseType",
          "name": "licenseType",
          "type": "uint8"
        },
        {
          "internalType": "uint256",
          "name": "duration",
          "type": "uint256"
        },
        {
          "internalType": "uint256",
          "name": "licensePrice",
          "type": "uint256"
        }
      ],
      "name": "grantLicense",
      "outputs": [],
      "stateMutability": "payable",
      "type": "function"
    },
    {
      "inputs": [
        {
          "internalType": "uint256",
          "name": "tokenId",
          "type": "uint256"
        },
        {
          "internalType": "address",
          "name": "user",
          "type": "address"
        },
        {
          "internalType": "enum MediaNFTMarketplace.LicenseType",
          "name": "licenseType",
          "type": "uint8"
        }
      ],
      "name": "hasValidLicense",
      "outputs": [
        {
          "internalType": "bool",
          "name": "",
          "type": "bool"
        }
      ],
      "stateMutability": "view",
      "type": "function"
    },
    {
      "inputs": [
        {
          "internalType": "string",
          "name": "",
          "type": "string"
        }
      ],
      "name": "hashToTokenId",
      "outputs": [
        {
          "internalType": "uint256",
          "name": "",
          "type": "uint256"
        }
      ],
      "stateMutability": "view",
      "type": "function"
    },
    {
      "inputs": [
        {
          "internalType": "address",
          "name": "owner",
          "type": "address"
        },
        {
          "internalType": "address",
          "name": "operator",
          "type": "address"
        }
      ],
      "name": "isApprovedForAll",
      "outputs": [
        {
          "internalType": "bool",
          "name": "",
          "type": "bool"
        }
      ],
      "stateMutability": "view",
      "type": "function"
    },
    {
      "inputs": [
        {
          "internalType": "uint256",
          "name": "tokenId",
          "type": "uint256"
        },
        {
          "internalType": "uint256",
          "name": "price",
          "type": "uint256"
        }
      ],
      "name": "listForSale",
      "outputs": [],
      "stateMutability": "nonpayable",
      "type": "function"
    },
    {
      "inputs": [
        {
          "internalType": "uint256",
          "name": "",
          "type": "uint256"
        }
      ],
      "name": "mediaAssets",
      "outputs": [
        {
          "internalType": "string",
          "name": "contentHash",
          "type": "string"
        },
        {
          "internalType": "string",
          "name": "ipfsHash",
          "type": "string"
        },
        {
          "internalType": "string",
          "name": "metadata",
          "type": "string"
        },
        {
          "internalType": "address",
          "name": "creator",
          "type": "address"
        },
        {
          "internalType": "uint256",
          "name": "createdAt",
          "type": "uint256"
        },
        {
          "internalType": "bool",
          "name": "isForSale",
          "type": "bool"
        },
        {
          "internalType": "uint256",
          "name": "price",
          "type": "uint256"
        },
        {
          "internalType": "uint256",
          "name": "royaltyPercentage",
          "type": "uint256"
        }
      ],
      "stateMutability": "view",
      "type": "function"
    },
    {
      "inputs": [
        {
          "internalType": "address",
          "name": "to",
          "type": "address"
        },
        {
          "internalType": "string",
          "name": "contentHash",
          "type": "string"
        },
        {
          "internalType": "string",
          "name": "ipfsHash",
          "type": "string"
        },
        {
          "internalType": "string",
          "name": "metadata",
          "type": "string"
        },
        {
          "internalType": "string",
          "name": "uri",
          "type": "string"
        },
        {
          "internalType": "uint96",
          "name": "royaltyPercentage",
          "type": "uint96"
        }
      ],
      "name": "mintContentNFT",
      "outputs": [
        {
          "internalType": "uint256",
          "name": "",
          "type": "uint256"
        }
      ],
      "stateMutability": "nonpayable",
      "type": "function"
    },
    {
      "inputs": [],
      "name": "name",
      "outputs": [
        {
          "internalType": "string",
          "name": "",
          "type": "string"
        }
      ],
      "stateMutability": "view",
      "type": "function"
    },
    {
      "inputs": [],
      "name": "owner",
      "outputs": [
        {
          "internalType": "address",
          "name": "",
          "type": "address"
        }
      ],
      "stateMutability": "view",
      "type": "function"
    },
    {
      "inputs": [
        {
          "internalType": "uint256",
          "name": "tokenId",
          "type": "uint256"
        }
      ],
      "name": "ownerOf",
      "outputs": [
        {
          "internalType": "address",
          "name": "",
          "type": "address"
        }
      ],
      "stateMutability": "view",
      "type": "function"
    },
    {
      "inputs": [
        {
          "internalType": "uint256",
          "name": "tokenId",
          "type": "uint256"
        }
      ],
      "name": "removeFromSale",
      "outputs": [],
      "stateMutability": "nonpayable",
      "type": "function"
    },
    {
      "inputs": [],
      "name": "renounceOwnership",
      "outputs": [],
      "stateMutability": "nonpayable",
      "type": "function"
    },
    {
      "inputs": [
        {
          "internalType": "uint256",
          "name": "tokenId",
          "type": "uint256"
        },
        {
          "internalType": "uint256",
          "name": "duration",
          "type": "uint256"
        }
      ],
      "name": "rentNFT",
      "outputs": [],
      "stateMutability": "payable",
      "type": "function"
    },
    {
      "inputs": [
        {
          "internalType": "address",
          "name": "from",
          "type": "address"
        },
        {
          "internalType": "address",
          "name": "to",
          "type": "address"
        },
        {
          "internalType": "uint256",
          "name": "tokenId",
          "type": "uint256"
        }
      ],
      "name": "safeTransferFrom",
      "outputs": [],
      "stateMutability": "nonpayable",
      "type": "function"
    },
    {
      "inputs": [
        {
          "internalType": "address",
          "name": "from",
          "type": "address"
        },
        {
          "internalType": "address",
          "name": "to",
          "type": "address"
        },
        {
          "internalType": "uint256",
          "name": "tokenId",
          "type": "uint256"
        },
        {
          "internalType": "bytes",
          "name": "data",
          "type": "bytes"
        }
      ],
      "name": "safeTransferFrom",
      "outputs": [],
      "stateMutability": "nonpayable",
      "type": "function"
    },
    {
      "inputs": [
        {
          "internalType": "address",
          "name": "operator",
          "type": "address"
        },
        {
          "internalType": "bool",
          "name": "approved",
          "type": "bool"
        }
      ],
      "name": "setApprovalForAll",
      "outputs": [],
      "stateMutability": "nonpayable",
      "type": "function"
    },
    {
      "inputs": [
        {
          "internalType": "bytes4",
          "name": "interfaceId",
          "type": "bytes4"
        }
      ],
      "name": "supportsInterface",
      "outputs": [
        {
          "internalType": "bool",
          "name": "",
          "type": "bool"
        }
      ],
      "stateMutability": "view",
      "type": "function"
    },
    {
      "inputs": [],
      "name": "symbol",
      "outputs": [
        {
          "internalType": "string",
          "name": "",
          "type": "string"
        }
      ],
      "stateMutability": "view",
      "type": "function"
    },
    {
      "inputs": [
        {
          "internalType": "uint256",
          "name": "",
          "type": "uint256"
        },
        {
          "internalType": "uint256",
          "name": "",
          "type": "uint256"
        }
      ],
      "name": "tokenLicenses",
      "outputs": [
        {
          "internalType": "address",
          "name": "licensee",
          "type": "address"
        },
        {
          "internalType": "uint256",
          "name": "tokenId",
          "type": "uint256"
        },
        {
          "internalType": "enum MediaNFTMarketplace.LicenseType",
          "name": "licenseType",
          "type": "uint8"
        },
        {
          "internalType": "uint256",
          "name": "expirationTime",
          "type": "uint256"
        },
        {
          "internalType": "uint256",
          "name": "price",
          "type": "uint256"
        },
        {
          "internalType": "bool",
          "name": "isActive",
          "type": "bool"
        }
      ],
      "stateMutability": "view",
      "type": "function"
    },
    {
      "inputs": [
        {
          "internalType": "uint256",
          "name": "tokenId",
          "type": "uint256"
        }
      ],
      "name": "tokenURI",
      "outputs": [
        {
          "internalType": "string",
          "name": "",
          "type": "string"
        }
      ],
      "stateMutability": "view",
      "type": "function"
    },
    {
      "inputs": [
        {
          "internalType": "uint256",
          "name": "",
          "type": "uint256"
        }
      ],
      "name": "tokenURIs",
      "outputs": [
        {
          "internalType": "string",
          "name": "",
          "type": "string"
        }
      ],
      "stateMutability": "view",
      "type": "function"
    },
    {
      "inputs": [
        {
          "internalType": "address",
          "name": "from",
          "type": "address"
        },
        {
          "internalType": "address",
          "name": "to",
          "type": "address"
        },
        {
          "internalType": "uint256",
          "name": "tokenId",
          "type": "uint256"
        }
      ],
      "name": "transferFrom",
      "outputs": [],
      "stateMutability": "nonpayable",
      "type": "function"
    },
    {
      "inputs": [
        {
          "internalType": "address",
          "name": "newOwner",
          "type": "address"
        }
      ],
      "name": "transferOwnership",
      "outputs": [],
      "stateMutability": "nonpayable",
      "type": "function"
    },
    {
      "inputs": [
        {
          "internalType": "string",
          "name": "contentHash",
          "type": "string"
        }
      ],
      "name": "verifyContentHash",
      "outputs": [
        {
          "internalType": "bool",
          "name": "exists",
          "type": "bool"
        },
        {
          "internalType": "uint256",
          "name": "tokenId",
          "type": "uint256"
        },
        {
          "internalType": "address",
          "name": "creator",
          "type": "address"
        }
      ],
      "stateMutability": "view",
      "type": "function"
    }
  ],
  "bytecode": "0x60806040523480156200001157600080fd5b50604051620032fc380380620032fc83398101604081905262000034916200012f565b80604051806040016040528060088152602001671359591a5853919560c21b815250604051806040016040528060048152602001631353919560e21b815250816000908162000084919062000206565b50600162000093828262000206565b5050506001600160a01b038116620000c557604051631e4fbdf760e01b81526000600482015260240160405180910390fd5b620000d081620000dd565b50506001600755620002d2565b600680546001600160a01b038381166001600160a01b0319831681179093556040519116919082907f8be0079c531659141344cd1fd0a4f28419497f9722a3daafe3b4186f6b6457e090600090a35050565b6000602082840312156200014257600080fd5b81516001600160a01b03811681146200015a57600080fd5b9392505050565b634e487b7160e01b600052604160045260246000fd5b600181811c908216806200018c57607f821691505b602082108103620001ad57634e487b7160e01b600052602260045260246000fd5b50919050565b601f8211156200020157600081815260208120601f850160051c81016020861015620001dc5750805b601f850160051c820191505b81811015620001fd57828155600101620001e8565b5050505b505050565b81516001600160401b0381111562000222576200022262000161565b6200023a8162000233845462000177565b84620001b3565b602080601f831160018114620002725760008415620002595750858301515b600019600386901b1c1916600185901b178555620001fd565b600085815260208120601f198616915b82811015620002a35788860151825594840194600190910190840162000282565b5085821015620002c25787850151600019600388901b60f8161c191681555b5050505050600190811b01905550565b61301a80620002e26000396000f3fe6080604052600436106101ee5760003560e01c80636c8b703f1161010d578063be76a24f116100a0578063e80d7fec1161006f578063e80d7fec146105b5578063e985e9c5146105d5578063f2fde38b146105f5578063f6d62d7e14610615578063f75b7dd21461064d57600080fd5b8063be76a24f14610540578063c87b56dd14610560578063db2e21bc14610580578063db5d3eea1461059557600080fd5b806393b2d6a0116100dc57806393b2d6a0146104d857806395d89b41146104eb578063a22cb46514610500578063b88d4fde1461052057600080fd5b80636c8b703f1461046557806370a0823114610485578063715018a6146104a55780638da5cb5b146104ba57600080fd5b80632f1bad111161018557806351ed82881161015457806351ed8288146103d1578063622d99bf146103e45780636352211e1461041157806365ad9b621461043157600080fd5b80632f1bad111461032957806342842e0e14610357578063497c735e146103775780634b9d7382146103a457600080fd5b80631361a3b6116101c15780631361a3b6146102a457806315282881146102c4578063194e5b5c146102d757806323b872dd1461030957600080fd5b806301ffc9a7146101f357806306fdde0314610228578063081812fc1461024a578063095ea7b314610282575b600080fd5b3480156101ff57600080fd5b5061021361020e366004612608565b610693565b60405190151581526020015b60405180910390f35b34801561023457600080fd5b5061023d6106e5565b60405161021f9190612675565b34801561025657600080fd5b5061026a610265366004612688565b610777565b6040516001600160a01b03909116815260200161021f565b34801561028e57600080fd5b506102a261029d3660046126bd565b6107a0565b005b3480156102b057600080fd5b506102a26102bf366004612688565b6107af565b6102a26102d23660046126f6565b610808565b3480156102e357600080fd5b506102f76102f2366004612744565b610b70565b60405161021f9695949392919061279e565b34801561031557600080fd5b506102a26103243660046127e1565b610bd4565b34801561033557600080fd5b506103496103443660046126bd565b610c5f565b60405190815260200161021f565b34801561036357600080fd5b506102a26103723660046127e1565b610c90565b34801561038357600080fd5b50610397610392366004612688565b610cb0565b60405161021f919061281d565b3480156103b057600080fd5b506103c46103bf3660046128d2565b610f4d565b60405161021f91906128ed565b6102a26103df366004612688565b610fb9565b3480156103f057600080fd5b506104046103ff366004612688565b611227565b60405161021f9190612931565b34801561041d57600080fd5b5061026a61042c366004612688565b611310565b34801561043d57600080fd5b5061045161044c366004612688565b61131b565b60405161021f9897969594939291906129bd565b34801561047157600080fd5b5061023d610480366004612688565b611501565b34801561049157600080fd5b506103496104a03660046128d2565b61159b565b3480156104b157600080fd5b506102a26115e3565b3480156104c657600080fd5b506006546001600160a01b031661026a565b6102a26104e6366004612744565b6115f7565b3480156104f757600080fd5b5061023d611773565b34801561050c57600080fd5b506102a261051b366004612a2e565b611782565b34801561052c57600080fd5b506102a261053b366004612af6565b61178d565b34801561054c57600080fd5b5061021361055b366004612b72565b6117a5565b34801561056c57600080fd5b5061023d61057b366004612688565b611983565b34801561058c57600080fd5b506102a2611a7e565b3480156105a157600080fd5b506103496105b0366004612be5565b611abf565b3480156105c157600080fd5b506102a26105d0366004612744565b611d7e565b3480156105e157600080fd5b506102136105f0366004612cb2565b611e61565b34801561060157600080fd5b506102a26106103660046128d2565b611e8f565b34801561062157600080fd5b50610349610630366004612ce5565b8051602081830181018051600b8252928201919093012091525481565b34801561065957600080fd5b5061066d610668366004612ce5565b611eca565b60408051931515845260208401929092526001600160a01b03169082015260600161021f565b60006001600160e01b031982166380ac58cd60e01b14806106c457506001600160e01b03198216635b5e139f60e01b145b806106df57506301ffc9a760e01b6001600160e01b03198316145b92915050565b6060600080546106f490612d1a565b80601f016020809104026020016040519081016040528092919081815260200182805461072090612d1a565b801561076d5780601f106107425761010080835404028352916020019161076d565b820191906000526020600020905b81548152906001019060200180831161075057829003601f168201915b5050505050905090565b600061078282611f2a565b506000828152600460205260409020546001600160a01b03166106df565b6107ab828233611f63565b5050565b336107b982611310565b6001600160a01b0316146107e85760405162461bcd60e51b81526004016107df90612d54565b60405180910390fd5b600090815260086020526040812060058101805460ff1916905560060155565b6000858152600260205260409020546001600160a01b031661083c5760405162461bcd60e51b81526004016107df90612d7b565b3361084686611310565b6001600160a01b03161461086c5760405162461bcd60e51b81526004016107df90612d54565b803410156108bc5760405162461bcd60e51b815260206004820181905260248201527f496e73756666696369656e74207061796d656e7420666f72206c6963656e736560448201526064016107df565b60006108c88342612dbf565b905060006040518060c00160405280876001600160a01b031681526020018881526020018660038111156108fe576108fe612766565b8152602080820185905260408083018790526001606090930183905260008b8152600983528181208054808601825590825290839020855160069092020180546001600160a01b0319166001600160a01b039092169190911781559184015182840155830151600282018054949550859492939192909160ff199091169083600381111561098e5761098e612766565b021790555060608201516003828101919091556080830151600483015560a0909201516005909101805460ff19169115159190911790556000888152600860205260408120918201546007909201546001600160a01b0390921691612710906109f79087612dd2565b610a019190612de9565b90506001600160a01b0382163314801590610a1c5750600081115b15610a9d576040516001600160a01b0383169082156108fc029083906000818181858888f19350505050158015610a57573d6000803e3d6000fd5b50816001600160a01b0316897ff670029fc6f5302baba881b4ae845d1453acdf752b4c19ed81fe0fa6a686409b83604051610a9491815260200190565b60405180910390a35b6000610aa98287612e0b565b90508015610ae057604051339082156108fc029083906000818181858888f19350505050158015610ade573d6000803e3d6000fd5b505b85341115610b2057336108fc610af68834612e0b565b6040518115909202916000818181858888f19350505050158015610b1e573d6000803e3d6000fd5b505b886001600160a01b03168a7f166518505eaf8b29af3f05f6156785a0dac95e3bbd5837b8a8604290dba351f68a88604051610b5c929190612e1e565b60405180910390a350505050505050505050565b60096020528160005260406000208181548110610b8c57600080fd5b60009182526020909120600690910201805460018201546002830154600384015460048501546005909501546001600160a01b03909416965091945060ff9081169391921686565b6001600160a01b038216610bfe57604051633250574960e11b8152600060048201526024016107df565b6000610c0b838333611f70565b9050836001600160a01b0316816001600160a01b031614610c59576040516364283d7b60e01b81526001600160a01b03808616600483015260248201849052821660448201526064016107df565b50505050565b600a6020528160005260406000208181548110610c7b57600080fd5b90600052602060002001600091509150505481565b610cab8383836040518060200160405280600081525061178d565b505050565b610d0360405180610100016040528060608152602001606081526020016060815260200160006001600160a01b031681526020016000815260200160001515815260200160008152602001600081525090565b6000828152600260205260409020546001600160a01b0316610d375760405162461bcd60e51b81526004016107df90612d7b565b6000828152600860205260409081902081516101008101909252805482908290610d6090612d1a565b80601f0160208091040260200160405190810160405280929190818152602001828054610d8c90612d1a565b8015610dd95780601f10610dae57610100808354040283529160200191610dd9565b820191906000526020600020905b815481529060010190602001808311610dbc57829003601f168201915b50505050508152602001600182018054610df290612d1a565b80601f0160208091040260200160405190810160405280929190818152602001828054610e1e90612d1a565b8015610e6b5780601f10610e4057610100808354040283529160200191610e6b565b820191906000526020600020905b815481529060010190602001808311610e4e57829003601f168201915b50505050508152602001600282018054610e8490612d1a565b80601f0160208091040260200160405190810160405280929190818152602001828054610eb090612d1a565b8015610efd5780601f10610ed257610100808354040283529160200191610efd565b820191906000526020600020905b815481529060010190602001808311610ee057829003601f168201915b505050918352505060038201546001600160a01b0316602082015260048201546040820152600582015460ff16151560608201526006820154608082015260079091015460a09091015292915050565b6001600160a01b0381166000908152600a6020908152604091829020805483518184028101840190945280845260609392830182828015610fad57602002820191906000526020600020905b815481526020019060010190808311610f99575b50505050509050919050565b610fc1612069565b6000818152600860205260409020600581015460ff166110165760405162461bcd60e51b815260206004820152601060248201526f4e4654206e6f7420666f722073616c6560801b60448201526064016107df565b80600601543410156110615760405162461bcd60e51b8152602060048201526014602482015273125b9cdd59999a58da595b9d081c185e5b595b9d60621b60448201526064016107df565b600061106c83611310565b600383015460068401549192506001600160a01b039081169190600090841683146110b1576127108560070154836110a49190612dd2565b6110ae9190612de9565b90505b6110bc843388612093565b60058501805460ff191690556000600686018190556110db8284612e0b565b9050801561111b576040516001600160a01b0386169082156108fc029083906000818181858888f19350505050158015611119573d6000803e3d6000fd5b505b811561119d576040516001600160a01b0385169083156108fc029084906000818181858888f19350505050158015611157573d6000803e3d6000fd5b50836001600160a01b0316877ff670029fc6f5302baba881b4ae845d1453acdf752b4c19ed81fe0fa6a686409b8460405161119491815260200190565b60405180910390a35b823411156111dd57336108fc6111b38534612e0b565b6040518115909202916000818181858888f193505050501580156111db573d6000803e3d6000fd5b505b604051838152339088907f25e037449654af3ec55c847874045b14238dc1519a5fd9d4d1f7ce81c71a29fa9060200160405180910390a35050505050506112246001600755565b50565b606060096000838152602001908152602001600020805480602002602001604051908101604052809291908181526020016000905b828210156113055760008481526020908190206040805160c0810182526006860290920180546001600160a01b0316835260018101549383019390935260028301549192919083019060ff1660038111156112b9576112b9612766565b60038111156112ca576112ca612766565b815260038201546020808301919091526004830154604083015260059092015460ff161515606090910152908252600192909201910161125c565b505050509050919050565b60006106df82611f2a565b60086020526000908152604090208054819061133690612d1a565b80601f016020809104026020016040519081016040528092919081815260200182805461136290612d1a565b80156113af5780601f10611384576101008083540402835291602001916113af565b820191906000526020600020905b81548152906001019060200180831161139257829003601f168201915b5050505050908060010180546113c490612d1a565b80601f01602080910402602001604051908101604052809291908181526020018280546113f090612d1a565b801561143d5780601f106114125761010080835404028352916020019161143d565b820191906000526020600020905b81548152906001019060200180831161142057829003601f168201915b50505050509080600201805461145290612d1a565b80601f016020809104026020016040519081016040528092919081815260200182805461147e90612d1a565b80156114cb5780601f106114a0576101008083540402835291602001916114cb565b820191906000526020600020905b8154815290600101906020018083116114ae57829003601f168201915b505050600384015460048501546005860154600687015460079097015495966001600160a01b039093169591945060ff16925088565b600c602052600090815260409020805461151a90612d1a565b80601f016020809104026020016040519081016040528092919081815260200182805461154690612d1a565b80156115935780601f1061156857610100808354040283529160200191611593565b820191906000526020600020905b81548152906001019060200180831161157657829003601f168201915b505050505081565b60006001600160a01b0382166115c7576040516322718ad960e21b8152600060048201526024016107df565b506001600160a01b031660009081526003602052604090205490565b6115eb612143565b6115f56000612170565b565b6000828152600260205260409020546001600160a01b031661162b5760405162461bcd60e51b81526004016107df90612d7b565b6000811161167b5760405162461bcd60e51b815260206004820152601f60248201527f4475726174696f6e206d7573742062652067726561746572207468616e20300060448201526064016107df565b6000828152600860205260409020600581015460ff166116dd5760405162461bcd60e51b815260206004820152601a60248201527f4e4654206e6f7420617661696c61626c6520666f722072656e7400000000000060448201526064016107df565b6000601e82600601546116f09190612de9565b90506000620151806117028584612dd2565b61170c9190612de9565b90508034101561175e5760405162461bcd60e51b815260206004820152601f60248201527f496e73756666696369656e74207061796d656e7420666f722072656e74616c0060448201526064016107df565b61176c853360038785610808565b5050505050565b6060600180546106f490612d1a565b6107ab3383836121c2565b611798848484610bd4565b610c593385858585612261565b600083815260096020908152604080832080548251818502810185019093528083528493849084015b828210156118775760008481526020908190206040805160c0810182526006860290920180546001600160a01b0316835260018101549383019390935260028301549192919083019060ff16600381111561182b5761182b612766565b600381111561183c5761183c612766565b815260038201546020808301919091526004830154604083015260059092015460ff16151560609091015290825260019290920191016117ce565b50505050905060005b815181101561197557846001600160a01b03168282815181106118a5576118a5612e39565b6020026020010151600001516001600160a01b031614801561190557508360038111156118d4576118d4612766565b8282815181106118e6576118e6612e39565b602002602001015160400151600381111561190357611903612766565b145b801561192b575081818151811061191e5761191e612e39565b602002602001015160a001515b801561195357504282828151811061194557611945612e39565b602002602001015160600151115b156119635760019250505061197c565b8061196d81612e4f565b915050611880565b5060009150505b9392505050565b6000818152600260205260409020546060906001600160a01b03166119ea5760405162461bcd60e51b815260206004820152601860248201527f4552433732313a20696e76616c696420746f6b656e204944000000000000000060448201526064016107df565b6000828152600c602052604090208054611a0390612d1a565b80601f0160208091040260200160405190810160405280929190818152602001828054611a2f90612d1a565b8015610fad5780601f10611a5157610100808354040283529160200191610fad565b820191906000526020600020905b815481529060010190602001808311611a5f5750939695505050505050565b611a86612143565b6006546040516001600160a01b03909116904780156108fc02916000818181858888f19350505050158015611224573d6000803e3d6000fd5b600080865111611b095760405162461bcd60e51b815260206004820152601560248201527410dbdb9d195b9d081a185cda081c995c5d5a5c9959605a1b60448201526064016107df565b600b86604051611b199190612e68565b908152602001604051809103902054600014611b705760405162461bcd60e51b815260206004820152601660248201527510dbdb9d195b9d08185b1c9958591e481b5a5b9d195960521b60448201526064016107df565b6103e8826001600160601b03161115611bbe5760405162461bcd60e51b815260206004820152601060248201526f0a4def2c2d8e8f240e8dede40d0d2ced60831b60448201526064016107df565b600d80549081906000611bd083612e4f565b9190505550611bdf888261238b565b6000818152600c60205260409020611bf78582612eca565b50604080516101008101825288815260208082018990528183018890526001600160a01b038b166060830152426080830152600060a0830181905260c083018190526001600160601b03871660e084015284815260089091529190912081518190611c629082612eca565b5060208201516001820190611c779082612eca565b5060408201516002820190611c8c9082612eca565b5060608201516003820180546001600160a01b0319166001600160a01b039283161790556080830151600483015560a083015160058301805460ff191691151591909117905560c0830151600683015560e09092015160079091015588166000908152600a6020908152604080832080546001810182559084529190922001829055518190600b90611d1f908a90612e68565b908152602001604051809103902081905550876001600160a01b0316817f7ee581db37ac7ca7cf7fa8c4827b1db0580fb89223cf27cc720e62a1ec1490f889604051611d6b9190612675565b60405180910390a3979650505050505050565b33611d8883611310565b6001600160a01b031614611dae5760405162461bcd60e51b81526004016107df90612d54565b60008111611dfe5760405162461bcd60e51b815260206004820152601c60248201527f5072696365206d7573742062652067726561746572207468616e20300000000060448201526064016107df565b6000828152600860205260409081902060058101805460ff191660011790556006018290555182907f72794fa9d50fb3910b451b867e8758208d33ae56056c8ac906a5045f3308145a90611e559084815260200190565b60405180910390a25050565b6001600160a01b03918216600090815260056020908152604080832093909416825291909152205460ff1690565b611e97612143565b6001600160a01b038116611ec157604051631e4fbdf760e01b8152600060048201526024016107df565b61122481612170565b6000806000600b84604051611edf9190612e68565b9081526040519081900360200190205491508115611f1c5750600081815260086020526040902060030154600192506001600160a01b0316611f23565b5060009150815b9193909250565b6000818152600260205260408120546001600160a01b0316806106df57604051637e27328960e01b8152600481018490526024016107df565b610cab83838360016123a5565b6000828152600260205260408120546001600160a01b0390811690831615611f9d57611f9d8184866124ab565b6001600160a01b03811615611fdb57611fba6000856000806123a5565b6001600160a01b038116600090815260036020526040902080546000190190555b6001600160a01b0385161561200a576001600160a01b0385166000908152600360205260409020805460010190555b60008481526002602052604080822080546001600160a01b0319166001600160a01b0389811691821790925591518793918516917fddf252ad1be2c89b69c2b068fc378daa952ba7f163c4a11628f55a4df523b3ef91a4949350505050565b60026007540361208c57604051633ee5aeb560e01b815260040160405180910390fd5b6002600755565b6001600160a01b0382166120bd57604051633250574960e11b8152600060048201526024016107df565b60006120cb83836000611f70565b90506001600160a01b0381166120f757604051637e27328960e01b8152600481018390526024016107df565b836001600160a01b0316816001600160a01b031614610c59576040516364283d7b60e01b81526001600160a01b03808616600483015260248201849052821660448201526064016107df565b6006546001600160a01b031633146115f55760405163118cdaa760e01b81523360048201526024016107df565b600680546001600160a01b038381166001600160a01b0319831681179093556040519116919082907f8be0079c531659141344cd1fd0a4f28419497f9722a3daafe3b4186f6b6457e090600090a35050565b6001600160a01b0382166121f457604051630b61174360e31b81526001600160a01b03831660048201526024016107df565b6001600160a01b03838116600081815260056020908152604080832094871680845294825291829020805460ff191686151590811790915591519182527f17307eab39ab6107e8899845ad3d59bd9653f200f220920489ca2b5937696c31910160405180910390a3505050565b6001600160a01b0383163b1561176c57604051630a85bd0160e11b81526001600160a01b0384169063150b7a02906122a3908890889087908790600401612f8a565b6020604051808303816000875af19250505080156122de575060408051601f3d908101601f191682019092526122db91810190612fc7565b60015b612347573d80801561230c576040519150601f19603f3d011682016040523d82523d6000602084013e612311565b606091505b50805160000361233f57604051633250574960e11b81526001600160a01b03851660048201526024016107df565b805160208201fd5b6001600160e01b03198116630a85bd0160e11b1461238357604051633250574960e11b81526001600160a01b03851660048201526024016107df565b505050505050565b6107ab82826040518060200160405280600081525061250f565b80806123b957506001600160a01b03821615155b1561247b5760006123c984611f2a565b90506001600160a01b038316158015906123f55750826001600160a01b0316816001600160a01b031614155b801561240857506124068184611e61565b155b156124315760405163a9fbf51f60e01b81526001600160a01b03841660048201526024016107df565b81156124795783856001600160a01b0316826001600160a01b03167f8c5be1e5ebec7d5bd14f71427d1e84f3dd0314c0f7b2291e5b200ac8c7c3b92560405160405180910390a45b505b5050600090815260046020526040902080546001600160a01b0319166001600160a01b0392909216919091179055565b6124b6838383612527565b610cab576001600160a01b0383166124e457604051637e27328960e01b8152600481018290526024016107df565b60405163177e802f60e01b81526001600160a01b0383166004820152602481018290526044016107df565b612519838361258d565b610cab336000858585612261565b60006001600160a01b038316158015906125855750826001600160a01b0316846001600160a01b0316148061256157506125618484611e61565b8061258557506000828152600460205260409020546001600160a01b038481169116145b949350505050565b6001600160a01b0382166125b757604051633250574960e11b8152600060048201526024016107df565b60006125c583836000611f70565b90506001600160a01b03811615610cab576040516339e3563760e11b8152600060048201526024016107df565b6001600160e01b03198116811461122457600080fd5b60006020828403121561261a57600080fd5b813561197c816125f2565b60005b83811015612640578181015183820152602001612628565b50506000910152565b60008151808452612661816020860160208601612625565b601f01601f19169290920160200192915050565b60208152600061197c6020830184612649565b60006020828403121561269a57600080fd5b5035919050565b80356001600160a01b03811681146126b857600080fd5b919050565b600080604083850312156126d057600080fd5b6126d9836126a1565b946020939093013593505050565b8035600481106126b857600080fd5b600080600080600060a0868803121561270e57600080fd5b8535945061271e602087016126a1565b935061272c604087016126e7565b94979396509394606081013594506080013592915050565b6000806040838503121561275757600080fd5b50508035926020909101359150565b634e487b7160e01b600052602160045260246000fd5b6004811061279a57634e487b7160e01b600052602160045260246000fd5b9052565b6001600160a01b03871681526020810186905260c081016127c2604083018761277c565b84606083015283608083015282151560a0830152979650505050505050565b6000806000606084860312156127f657600080fd5b6127ff846126a1565b925061280d602085016126a1565b9150604084013590509250925092565b602081526000825161010080602085015261283c610120850183612649565b91506020850151601f198086850301604087015261285a8483612649565b93506040870151915080868503016060870152506128788382612649565b925050606085015161289560808601826001600160a01b03169052565b50608085015160a085015260a08501516128b360c086018215159052565b5060c085015160e085015260e085015181850152508091505092915050565b6000602082840312156128e457600080fd5b61197c826126a1565b6020808252825182820181905260009190848201906040850190845b8181101561292557835183529284019291840191600101612909565b50909695505050505050565b602080825282518282018190526000919060409081850190868401855b828110156129b057815180516001600160a01b0316855286810151878601528581015161297d8787018261277c565b50606081810151908601526080808201519086015260a09081015115159085015260c0909301929085019060010161294e565b5091979650505050505050565b60006101008083526129d18184018c612649565b905082810360208401526129e5818b612649565b905082810360408401526129f9818a612649565b6001600160a01b039890981660608401525050608081019490945291151560a084015260c083015260e0909101529392505050565b60008060408385031215612a4157600080fd5b612a4a836126a1565b915060208301358015158114612a5f57600080fd5b809150509250929050565b634e487b7160e01b600052604160045260246000fd5b600067ffffffffffffffff80841115612a9b57612a9b612a6a565b604051601f8501601f19908116603f01168101908282118183101715612ac357612ac3612a6a565b81604052809350858152868686011115612adc57600080fd5b858560208301376000602087830101525050509392505050565b60008060008060808587031215612b0c57600080fd5b612b15856126a1565b9350612b23602086016126a1565b925060408501359150606085013567ffffffffffffffff811115612b4657600080fd5b8501601f81018713612b5757600080fd5b612b6687823560208401612a80565b91505092959194509250565b600080600060608486031215612b8757600080fd5b83359250612b97602085016126a1565b9150612ba5604085016126e7565b90509250925092565b600082601f830112612bbf57600080fd5b61197c83833560208501612a80565b80356001600160601b03811681146126b857600080fd5b60008060008060008060c08789031215612bfe57600080fd5b612c07876126a1565b9550602087013567ffffffffffffffff80821115612c2457600080fd5b612c308a838b01612bae565b96506040890135915080821115612c4657600080fd5b612c528a838b01612bae565b95506060890135915080821115612c6857600080fd5b612c748a838b01612bae565b94506080890135915080821115612c8a57600080fd5b50612c9789828a01612bae565b925050612ca660a08801612bce565b90509295509295509295565b60008060408385031215612cc557600080fd5b612cce836126a1565b9150612cdc602084016126a1565b90509250929050565b600060208284031215612cf757600080fd5b813567ffffffffffffffff811115612d0e57600080fd5b61258584828501612bae565b600181811c90821680612d2e57607f821691505b602082108103612d4e57634e487b7160e01b600052602260045260246000fd5b50919050565b6020808252600d908201526c2737ba103a34329037bbb732b960991b604082015260600190565b602080825260149082015273151bdad95b88191bd95cc81b9bdd08195e1a5cdd60621b604082015260600190565b634e487b7160e01b600052601160045260246000fd5b808201808211156106df576106df612da9565b80820281158282048414176106df576106df612da9565b600082612e0657634e487b7160e01b600052601260045260246000fd5b500490565b818103818111156106df576106df612da9565b60408101612e2c828561277c565b8260208301529392505050565b634e487b7160e01b600052603260045260246000fd5b600060018201612e6157612e61612da9565b5060010190565b60008251612e7a818460208701612625565b9190910192915050565b601f821115610cab57600081815260208120601f850160051c81016020861015612eab5750805b601f850160051c820191505b8181101561238357828155600101612eb7565b815167ffffffffffffffff811115612ee457612ee4612a6a565b612ef881612ef28454612d1a565b84612e84565b602080601f831160018114612f2d5760008415612f155750858301515b600019600386901b1c1916600185901b178555612383565b600085815260208120601f198616915b82811015612f5c57888601518255948401946001909101908401612f3d565b5085821015612f7a5787850151600019600388901b60f8161c191681555b5050505050600190811b01905550565b6001600160a01b0385811682528416602082015260408101839052608060608201819052600090612fbd90830184612649565b9695505050505050565b600060208284031215612fd957600080fd5b815161197c816125f256fea26469706673582212201ef5723d03cdadc1ebb074dc851e2eba0926a099c89769536fccd8907872cff464736f6c63430008140033",
  "linkReferences": {},
  "deployedLinkReferences": {}
}