{
  "_format": "hh-sol-artifact-1",
  "contractName": "AdvancedLicenseManager",
  "sourceName": "contracts/AdvancedLicenseManager.sol",
  "abi": [
    {
      "inputs": [
        {
          "internalType": "address",
          "name": "initialOwner",
          "type": "address"
        },
        {
          "internalType": "address",
          "name": "_paymentToken",
          "type": "address"
        },
        {
          "internalType": "address",
          "name": "_treasuryWallet",
          "type": "address"
        }
      ],
      "stateMutability": "nonpayable",
      "type": "constructor"
    },
    {
      "inputs": [
        {
          "internalType": "address",
          "name": "owner",
          "type": "address"
        }
      ],
      "name": "OwnableInvalidOwner",
      "type": "error"
    },
    {
      "inputs": [
        {
          "internalType": "address",
          "name": "account",
          "type": "address"
        }
      ],
      "name": "OwnableUnauthorizedAccount",
      "type": "error"
    },
    {
      "inputs": [],
      "name": "ReentrancyGuardReentrantCall",
      "type": "error"
    },
    {
      "anonymous": false,
      "inputs": [
        {
          "indexed": true,
          "internalType": "uint256",
          "name": "licenseId",
          "type": "uint256"
        },
        {
          "indexed": true,
          "internalType": "address",
          "name": "licensee",
          "type": "address"
        },
        {
          "indexed": false,
          "internalType": "uint256",
          "name": "contentTokenId",
          "type": "uint256"
        }
      ],
      "name": "LicenseGranted",
      "type": "event"
    },
    {
      "anonymous": false,
      "inputs": [
        {
          "indexed": true,
          "internalType": "uint256",
          "name": "licenseId",
          "type": "uint256"
        },
        {
          "indexed": false,
          "internalType": "string",
          "name": "reason",
          "type": "string"
        }
      ],
      "name": "LicenseRevoked",
      "type": "event"
    },
    {
      "anonymous": false,
      "inputs": [
        {
          "indexed": true,
          "internalType": "uint256",
          "name": "templateId",
          "type": "uint256"
        },
        {
          "indexed": false,
          "internalType": "string",
          "name": "name",
          "type": "string"
        }
      ],
      "name": "LicenseTemplateCreated",
      "type": "event"
    },
    {
      "anonymous": false,
      "inputs": [
        {
          "indexed": true,
          "internalType": "address",
          "name": "previousOwner",
          "type": "address"
        },
        {
          "indexed": true,
          "internalType": "address",
          "name": "newOwner",
          "type": "address"
        }
      ],
      "name": "OwnershipTransferred",
      "type": "event"
    },
    {
      "anonymous": false,
      "inputs": [
        {
          "indexed": true,
          "internalType": "uint256",
          "name": "licenseId",
          "type": "uint256"
        },
        {
          "indexed": true,
          "internalType": "address",
          "name": "creator",
          "type": "address"
        },
        {
          "indexed": false,
          "internalType": "uint256",
          "name": "amount",
          "type": "uint256"
        }
      ],
      "name": "RoyaltyPaid",
      "type": "event"
    },
    {
      "anonymous": false,
      "inputs": [
        {
          "indexed": true,
          "internalType": "uint256",
          "name": "licenseId",
          "type": "uint256"
        },
        {
          "indexed": false,
          "internalType": "string",
          "name": "usageDescription",
          "type": "string"
        }
      ],
      "name": "UsageReported",
      "type": "event"
    },
    {
      "inputs": [
        {
          "internalType": "uint256",
          "name": "",
          "type": "uint256"
        },
        {
          "internalType": "uint256",
          "name": "",
          "type": "uint256"
        }
      ],
      "name": "contentLicenses",
      "outputs": [
        {
          "internalType": "uint256",
          "name": "",
          "type": "uint256"
        }
      ],
      "stateMutability": "view",
      "type": "function"
    },
    {
      "inputs": [
        {
          "internalType": "string",
          "name": "name",
          "type": "string"
        },
        {
          "internalType": "string",
          "name": "description",
          "type": "string"
        },
        {
          "internalType": "uint256",
          "name": "basePriceETH",
          "type": "uint256"
        },
        {
          "internalType": "uint256",
          "name": "basePriceToken",
          "type": "uint256"
        },
        {
          "internalType": "uint256",
          "name": "maxDuration",
          "type": "uint256"
        },
        {
          "internalType": "enum AdvancedLicenseManager.LicenseScope",
          "name": "scope",
          "type": "uint8"
        },
        {
          "internalType": "enum AdvancedLicenseManager.CommercialRights",
          "name": "commercialRights",
          "type": "uint8"
        }
      ],
      "name": "createLicenseTemplate",
      "outputs": [
        {
          "internalType": "uint256",
          "name": "",
          "type": "uint256"
        }
      ],
      "stateMutability": "nonpayable",
      "type": "function"
    },
    {
      "inputs": [
        {
          "internalType": "uint256",
          "name": "licenseId",
          "type": "uint256"
        },
        {
          "internalType": "uint256",
          "name": "additionalDuration",
          "type": "uint256"
        }
      ],
      "name": "extendLicense",
      "outputs": [],
      "stateMutability": "payable",
      "type": "function"
    },
    {
      "inputs": [
        {
          "internalType": "uint256",
          "name": "contentTokenId",
          "type": "uint256"
        }
      ],
      "name": "getContentLicenses",
      "outputs": [
        {
          "internalType": "uint256[]",
          "name": "",
          "type": "uint256[]"
        }
      ],
      "stateMutability": "view",
      "type": "function"
    },
    {
      "inputs": [
        {
          "internalType": "uint256",
          "name": "licenseId",
          "type": "uint256"
        }
      ],
      "name": "getLicenseUsageReports",
      "outputs": [
        {
          "components": [
            {
              "internalType": "uint256",
              "name": "licenseId",
              "type": "uint256"
            },
            {
              "internalType": "string",
              "name": "usageDescription",
              "type": "string"
            },
            {
              "internalType": "uint256",
              "name": "timestamp",
              "type": "uint256"
            },
            {
              "internalType": "string",
              "name": "proofHash",
              "type": "string"
            }
          ],
          "internalType": "struct AdvancedLicenseManager.UsageReport[]",
          "name": "",
          "type": "tuple[]"
        }
      ],
      "stateMutability": "view",
      "type": "function"
    },
    {
      "inputs": [
        {
          "internalType": "address",
          "name": "user",
          "type": "address"
        }
      ],
      "name": "getUserLicenses",
      "outputs": [
        {
          "internalType": "uint256[]",
          "name": "",
          "type": "uint256[]"
        }
      ],
      "stateMutability": "view",
      "type": "function"
    },
    {
      "inputs": [
        {
          "internalType": "uint256",
          "name": "licenseId",
          "type": "uint256"
        }
      ],
      "name": "isLicenseValid",
      "outputs": [
        {
          "internalType": "bool",
          "name": "",
          "type": "bool"
        }
      ],
      "stateMutability": "view",
      "type": "function"
    },
    {
      "inputs": [],
      "name": "licenseCounter",
      "outputs": [
        {
          "internalType": "uint256",
          "name": "",
          "type": "uint256"
        }
      ],
      "stateMutability": "view",
      "type": "function"
    },
    {
      "inputs": [
        {
          "internalType": "uint256",
          "name": "",
          "type": "uint256"
        }
      ],
      "name": "licenseTemplates",
      "outputs": [
        {
          "internalType": "string",
          "name": "name",
          "type": "string"
        },
        {
          "internalType": "string",
          "name": "description",
          "type": "string"
        },
        {
          "internalType": "uint256",
          "name": "basePriceETH",
          "type": "uint256"
        },
        {
          "internalType": "uint256",
          "name": "basePriceToken",
          "type": "uint256"
        },
        {
          "internalType": "uint256",
          "name": "maxDuration",
          "type": "uint256"
        },
        {
          "internalType": "bool",
          "name": "isActive",
          "type": "bool"
        },
        {
          "internalType": "enum AdvancedLicenseManager.LicenseScope",
          "name": "scope",
          "type": "uint8"
        },
        {
          "internalType": "enum AdvancedLicenseManager.CommercialRights",
          "name": "commercialRights",
          "type": "uint8"
        }
      ],
      "stateMutability": "view",
      "type": "function"
    },
    {
      "inputs": [
        {
          "internalType": "uint256",
          "name": "",
          "type": "uint256"
        }
      ],
      "name": "licenses",
      "outputs": [
        {
          "internalType": "uint256",
          "name": "licenseId",
          "type": "uint256"
        },
        {
          "internalType": "uint256",
          "name": "templateId",
          "type": "uint256"
        },
        {
          "internalType": "uint256",
          "name": "contentTokenId",
          "type": "uint256"
        },
        {
          "internalType": "address",
          "name": "licensee",
          "type": "address"
        },
        {
          "internalType": "address",
          "name": "licensor",
          "type": "address"
        },
        {
          "internalType": "uint256",
          "name": "startTime",
          "type": "uint256"
        },
        {
          "internalType": "uint256",
          "name": "endTime",
          "type": "uint256"
        },
        {
          "internalType": "uint256",
          "name": "pricePaid",
          "type": "uint256"
        },
        {
          "internalType": "enum AdvancedLicenseManager.PaymentMethod",
          "name": "paymentMethod",
          "type": "uint8"
        },
        {
          "internalType": "enum AdvancedLicenseManager.LicenseStatus",
          "name": "status",
          "type": "uint8"
        },
        {
          "internalType": "string",
          "name": "termsHash",
          "type": "string"
        }
      ],
      "stateMutability": "view",
      "type": "function"
    },
    {
      "inputs": [],
      "name": "owner",
      "outputs": [
        {
          "internalType": "address",
          "name": "",
          "type": "address"
        }
      ],
      "stateMutability": "view",
      "type": "function"
    },
    {
      "inputs": [],
      "name": "paymentToken",
      "outputs": [
        {
          "internalType": "contract IERC20",
          "name": "",
          "type": "address"
        }
      ],
      "stateMutability": "view",
      "type": "function"
    },
    {
      "inputs": [],
      "name": "platformFeePercentage",
      "outputs": [
        {
          "internalType": "uint256",
          "name": "",
          "type": "uint256"
        }
      ],
      "stateMutability": "view",
      "type": "function"
    },
    {
      "inputs": [
        {
          "internalType": "uint256",
          "name": "templateId",
          "type": "uint256"
        },
        {
          "internalType": "uint256",
          "name": "contentTokenId",
          "type": "uint256"
        },
        {
          "internalType": "uint256",
          "name": "duration",
          "type": "uint256"
        },
        {
          "internalType": "string",
          "name": "termsHash",
          "type": "string"
        }
      ],
      "name": "purchaseLicenseETH",
      "outputs": [
        {
          "internalType": "uint256",
          "name": "",
          "type": "uint256"
        }
      ],
      "stateMutability": "payable",
      "type": "function"
    },
    {
      "inputs": [
        {
          "internalType": "uint256",
          "name": "templateId",
          "type": "uint256"
        },
        {
          "internalType": "uint256",
          "name": "contentTokenId",
          "type": "uint256"
        },
        {
          "internalType": "uint256",
          "name": "duration",
          "type": "uint256"
        },
        {
          "internalType": "string",
          "name": "termsHash",
          "type": "string"
        }
      ],
      "name": "purchaseLicenseToken",
      "outputs": [
        {
          "internalType": "uint256",
          "name": "",
          "type": "uint256"
        }
      ],
      "stateMutability": "nonpayable",
      "type": "function"
    },
    {
      "inputs": [],
      "name": "renounceOwnership",
      "outputs": [],
      "stateMutability": "nonpayable",
      "type": "function"
    },
    {
      "inputs": [
        {
          "internalType": "uint256",
          "name": "licenseId",
          "type": "uint256"
        },
        {
          "internalType": "string",
          "name": "usageDescription",
          "type": "string"
        },
        {
          "internalType": "string",
          "name": "proofHash",
          "type": "string"
        }
      ],
      "name": "reportUsage",
      "outputs": [],
      "stateMutability": "nonpayable",
      "type": "function"
    },
    {
      "inputs": [
        {
          "internalType": "uint256",
          "name": "licenseId",
          "type": "uint256"
        },
        {
          "internalType": "string",
          "name": "reason",
          "type": "string"
        }
      ],
      "name": "revokeLicense",
      "outputs": [],
      "stateMutability": "nonpayable",
      "type": "function"
    },
    {
      "inputs": [],
      "name": "templateCounter",
      "outputs": [
        {
          "internalType": "uint256",
          "name": "",
          "type": "uint256"
        }
      ],
      "stateMutability": "view",
      "type": "function"
    },
    {
      "inputs": [
        {
          "internalType": "address",
          "name": "newOwner",
          "type": "address"
        }
      ],
      "name": "transferOwnership",
      "outputs": [],
      "stateMutability": "nonpayable",
      "type": "function"
    },
    {
      "inputs": [],
      "name": "treasuryWallet",
      "outputs": [
        {
          "internalType": "address",
          "name": "",
          "type": "address"
        }
      ],
      "stateMutability": "view",
      "type": "function"
    },
    {
      "inputs": [
        {
          "internalType": "uint256",
          "name": "newFeePercentage",
          "type": "uint256"
        }
      ],
      "name": "updatePlatformFee",
      "outputs": [],
      "stateMutability": "nonpayable",
      "type": "function"
    },
    {
      "inputs": [
        {
          "internalType": "address",
          "name": "newTreasury",
          "type": "address"
        }
      ],
      "name": "updateTreasuryWallet",
      "outputs": [],
      "stateMutability": "nonpayable",
      "type": "function"
    },
    {
      "inputs": [
        {
          "internalType": "uint256",
          "name": "",
          "type": "uint256"
        },
        {
          "internalType": "uint256",
          "name": "",
          "type": "uint256"
        }
      ],
      "name": "usageReports",
      "outputs": [
        {
          "internalType": "uint256",
          "name": "licenseId",
          "type": "uint256"
        },
        {
          "internalType": "string",
          "name": "usageDescription",
          "type": "string"
        },
        {
          "internalType": "uint256",
          "name": "timestamp",
          "type": "uint256"
        },
        {
          "internalType": "string",
          "name": "proofHash",
          "type": "string"
        }
      ],
      "stateMutability": "view",
      "type": "function"
    },
    {
      "inputs": [
        {
          "internalType": "address",
          "name": "",
          "type": "address"
        },
        {
          "internalType": "uint256",
          "name": "",
          "type": "uint256"
        }
      ],
      "name": "userLicenses",
      "outputs": [
        {
          "internalType": "uint256",
          "name": "",
          "type": "uint256"
        }
      ],
      "stateMutability": "view",
      "type": "function"
    }
  ],
  "bytecode": "0x608060405260fa600b553480156200001657600080fd5b506040516200328c3803806200328c833981016040819052620000399162000448565b826001600160a01b0381166200006a57604051631e4fbdf760e01b8152600060048201526024015b60405180910390fd5b6200007581620000bd565b5060018055600980546001600160a01b038085166001600160a01b031992831617909255600a805492841692909116919091179055620000b46200010d565b50505062000691565b600080546001600160a01b038381166001600160a01b0319831681178455604051919092169283917f8be0079c531659141344cd1fd0a4f28419497f9722a3daafe3b4186f6b6457e09190a35050565b620001706040518060400160405280600c81526020016b506572736f6e616c2055736560a01b8152506040518060600160405280602881526020016200323360289139662386f26fc1000068056bc75e2d631000006301e1338060008062000255565b50620001db60405180604001604052806012815260200171436f6d6d65726369616c204c6963656e736560701b8152506040518060600160405280602b815260200162003208602b913967016345785d8a0000683635c9adc5dea000006301e1338060018062000255565b50620002526040518060400160405280601381526020017f457874656e64656420436f6d6d65726369616c000000000000000000000000008152506040518060600160405280603181526020016200325b603191396706f05b59d3b2000069010f0cf064dd592000006301e1338060028062000255565b50565b600062000261620003fa565b6007805460009182620002748362000492565b9190505590506040518061010001604052808a8152602001898152602001888152602001878152602001868152602001600115158152602001856005811115620002c257620002c2620004ba565b8152602001846003811115620002dc57620002dc620004ba565b9052600082815260026020526040902081518190620002fc908262000575565b506020820151600182019062000313908262000575565b5060408201516002820155606082015160038201556080820151600482015560a08201516005808301805492151560ff1984168117825560c086015193919261ff001990911661ffff1990921691909117906101009084908111156200037d576200037d620004ba565b021790555060e082015160058201805462ff0000191662010000836003811115620003ac57620003ac620004ba565b0217905550905050807f23ea8c3e10556ad92e3effb1b4f48bb2c2f3344e953cdf5f0e8825a428a2fe2d8a604051620003e6919062000641565b60405180910390a298975050505050505050565b6000546001600160a01b03163314620004295760405163118cdaa760e01b815233600482015260240162000061565b565b80516001600160a01b03811681146200044357600080fd5b919050565b6000806000606084860312156200045e57600080fd5b62000469846200042b565b925062000479602085016200042b565b915062000489604085016200042b565b90509250925092565b600060018201620004b357634e487b7160e01b600052601160045260246000fd5b5060010190565b634e487b7160e01b600052602160045260246000fd5b634e487b7160e01b600052604160045260246000fd5b600181811c90821680620004fb57607f821691505b6020821081036200051c57634e487b7160e01b600052602260045260246000fd5b50919050565b601f8211156200057057600081815260208120601f850160051c810160208610156200054b5750805b601f850160051c820191505b818110156200056c5782815560010162000557565b5050505b505050565b81516001600160401b03811115620005915762000591620004d0565b620005a981620005a28454620004e6565b8462000522565b602080601f831160018114620005e15760008415620005c85750858301515b600019600386901b1c1916600185901b1785556200056c565b600085815260208120601f198616915b828110156200061257888601518255948401946001909101908401620005f1565b5085821015620006315787850151600019600388901b60f8161c191681555b5050505050600190811b01905550565b600060208083528351808285015260005b81811015620006705785810183015185820160400152820162000652565b506000604082860101526040601f19601f8301168501019250505092915050565b612b6780620006a16000396000f3fe6080604052600436106101665760003560e01c8063809d458d116100d1578063cdd78cfc1161008a578063e529110e11610064578063e529110e1461046f578063e5f1c54814610485578063f2fde38b146104a5578063f6f9e4df146104c557600080fd5b8063cdd78cfc14610416578063d285680d1461042c578063dcf5c2611461044257600080fd5b8063809d458d146103345780638da5cb5b146103545780639f7fc6d314610372578063aa0b5988146103a2578063ba232648146103c2578063bb28ac9e146103f657600080fd5b8063454c1d3111610123578063454c1d311461027c5780634626402b1461029c5780635d74364d146102bc578063715018a6146102cf57806375a106c3146102e45780637a2de3db1461030457600080fd5b80630be6e2c61461016b5780631350c8781461018d5780633013ce29146101c057806333790845146101f8578063352133851461022f578063429178771461024f575b600080fd5b34801561017757600080fd5b5061018b610186366004612412565b6104d8565b005b34801561019957600080fd5b506101ad6101a8366004612459565b6105da565b6040519081526020015b60405180910390f35b3480156101cc57600080fd5b506009546101e0906001600160a01b031681565b6040516001600160a01b0390911681526020016101b7565b34801561020457600080fd5b5061021861021336600461247b565b61060b565b6040516101b79b9a99989796959493929190612500565b34801561023b57600080fd5b506101ad61024a36600461258e565b610704565b34801561025b57600080fd5b5061026f61026a36600461247b565b610a7f565b6040516101b791906125e8565b34801561028857600080fd5b506101ad610297366004612648565b610ae1565b3480156102a857600080fd5b50600a546101e0906001600160a01b031681565b6101ad6102ca36600461258e565b610afd565b3480156102db57600080fd5b5061018b610e38565b3480156102f057600080fd5b5061026f6102ff366004612672565b610e4c565b34801561031057600080fd5b5061032461031f366004612459565b610eb6565b6040516101b7949392919061268d565b34801561034057600080fd5b5061018b61034f366004612672565b611013565b34801561036057600080fd5b506000546001600160a01b03166101e0565b34801561037e57600080fd5b5061039261038d36600461247b565b61103d565b60405190151581526020016101b7565b3480156103ae57600080fd5b5061018b6103bd36600461247b565b611207565b3480156103ce57600080fd5b506103e26103dd36600461247b565b611255565b6040516101b79897969594939291906126c9565b34801561040257600080fd5b506101ad610411366004612740565b6113b0565b34801561042257600080fd5b506101ad600b5481565b34801561043857600080fd5b506101ad60075481565b34801561044e57600080fd5b5061046261045d36600461247b565b61153f565b6040516101b791906127f0565b34801561047b57600080fd5b506101ad60085481565b34801561049157600080fd5b5061018b6104a036600461288c565b6116e9565b3480156104b157600080fd5b5061018b6104c0366004612672565b611a0f565b61018b6104d3366004612459565b611a4d565b600082815260036020526040902060048101546001600160a01b031633148061050b57506000546001600160a01b031633145b61054d5760405162461bcd60e51b815260206004820152600e60248201526d139bdd08185d5d1a1bdc9a5e995960921b60448201526064015b60405180910390fd5b60006008820154610100900460ff16600381111561056d5761056d612494565b1461058a5760405162461bcd60e51b8152600401610544906128f9565b60088101805461ff00191661020017905560405183907f6ee3b31d44997c648df5e90862e4a006388f62a5305fc479c0d13958d1926a06906105cd908590612925565b60405180910390a2505050565b600660205281600052604060002081815481106105f657600080fd5b90600052602060002001600091509150505481565b60036020819052600091825260409091208054600182015460028301549383015460048401546005850154600686015460078701546008880154600989018054989a979997986001600160a01b0397881698979096169694959394929360ff808416946101009094041692919061068190612938565b80601f01602080910402602001604051908101604052809291908181526020018280546106ad90612938565b80156106fa5780601f106106cf576101008083540402835291602001916106fa565b820191906000526020600020905b8154815290600101906020018083116106dd57829003601f168201915b505050505090508b565b600061070e611f61565b6000858152600260205260408082208151610100810190925280548290829061073690612938565b80601f016020809104026020016040519081016040528092919081815260200182805461076290612938565b80156107af5780601f10610784576101008083540402835291602001916107af565b820191906000526020600020905b81548152906001019060200180831161079257829003601f168201915b505050505081526020016001820180546107c890612938565b80601f01602080910402602001604051908101604052809291908181526020018280546107f490612938565b80156108415780601f1061081657610100808354040283529160200191610841565b820191906000526020600020905b81548152906001019060200180831161082457829003601f168201915b505050918352505060028201546020820152600382015460408201526004820154606082015260058083015460ff8082161515608085015260a090930192610100909104169081111561089657610896612494565b60058111156108a7576108a7612494565b81526020016005820160029054906101000a900460ff1660038111156108cf576108cf612494565b60038111156108e0576108e0612494565b8152505090508060a0015161092d5760405162461bcd60e51b815260206004820152601360248201527254656d706c617465206e6f742061637469766560681b6044820152606401610544565b806080015184111561097c5760405162461bcd60e51b81526020600482015260186024820152774475726174696f6e2065786365656473206d6178696d756d60401b6044820152606401610544565b600061098c826060015186611f8b565b6009546040516323b872dd60e01b8152336004820152306024820152604481018390529192506001600160a01b0316906323b872dd906064016020604051808303816000875af11580156109e4573d6000803e3d6000fd5b505050506040513d601f19601f82011682018060405250810190610a089190612972565b610a4c5760405162461bcd60e51b8152602060048201526015602482015274151bdad95b881d1c985b9cd9995c8819985a5b1959605a1b6044820152606401610544565b6000610a5e888833898660018b611fbd565b9050610a6a82886121d1565b92505050610a7760018055565b949350505050565b600081815260066020908152604091829020805483518184028101840190945280845260609392830182828015610ad557602002820191906000526020600020905b815481526020019060010190808311610ac1575b50505050509050919050565b600560205281600052604060002081815481106105f657600080fd5b6000610b07611f61565b60008581526002602052604080822081516101008101909252805482908290610b2f90612938565b80601f0160208091040260200160405190810160405280929190818152602001828054610b5b90612938565b8015610ba85780601f10610b7d57610100808354040283529160200191610ba8565b820191906000526020600020905b815481529060010190602001808311610b8b57829003601f168201915b50505050508152602001600182018054610bc190612938565b80601f0160208091040260200160405190810160405280929190818152602001828054610bed90612938565b8015610c3a5780601f10610c0f57610100808354040283529160200191610c3a565b820191906000526020600020905b815481529060010190602001808311610c1d57829003601f168201915b505050918352505060028201546020820152600382015460408201526004820154606082015260058083015460ff8082161515608085015260a0909301926101009091041690811115610c8f57610c8f612494565b6005811115610ca057610ca0612494565b81526020016005820160029054906101000a900460ff166003811115610cc857610cc8612494565b6003811115610cd957610cd9612494565b8152505090508060a00151610d265760405162461bcd60e51b815260206004820152601360248201527254656d706c617465206e6f742061637469766560681b6044820152606401610544565b8060800151841115610d755760405162461bcd60e51b81526020600482015260186024820152774475726174696f6e2065786365656473206d6178696d756d60401b6044820152606401610544565b6000610d85826040015186611f8b565b905080341015610dce5760405162461bcd60e51b8152602060048201526014602482015273125b9cdd59999a58da595b9d081c185e5b595b9d60621b6044820152606401610544565b6000610de0888833898660008b611fbd565b9050610dec8288612285565b81341115610a6a57336108fc610e0284346129aa565b6040518115909202916000818181858888f19350505050158015610e2a573d6000803e3d6000fd5b5092505050610a7760018055565b610e406122f2565b610e4a600061231f565b565b6001600160a01b038116600090815260056020908152604091829020805483518184028101840190945280845260609392830182828015610ad55760200282019190600052602060002090815481526020019060010190808311610ac15750505050509050919050565b60046020528160005260406000208181548110610ed257600080fd5b906000526020600020906004020160009150915050806000015490806001018054610efc90612938565b80601f0160208091040260200160405190810160405280929190818152602001828054610f2890612938565b8015610f755780601f10610f4a57610100808354040283529160200191610f75565b820191906000526020600020905b815481529060010190602001808311610f5857829003601f168201915b505050505090806002015490806003018054610f9090612938565b80601f0160208091040260200160405190810160405280929190818152602001828054610fbc90612938565b80156110095780601f10610fde57610100808354040283529160200191611009565b820191906000526020600020905b815481529060010190602001808311610fec57829003601f168201915b5050505050905084565b61101b6122f2565b600a80546001600160a01b0319166001600160a01b0392909216919091179055565b60008181526003602081815260408084208151610160810183528154815260018083015494820194909452600282015492810192909252928301546001600160a01b0390811660608301526004840154166080820152600583015460a0820152600683015460c0820152600783015460e082015260088301548493919261010084019160ff16908111156110d3576110d3612494565b60018111156110e4576110e4612494565b81526020016008820160019054906101000a900460ff16600381111561110c5761110c612494565b600381111561111d5761111d612494565b815260200160098201805461113190612938565b80601f016020809104026020016040519081016040528092919081815260200182805461115d90612938565b80156111aa5780601f1061117f576101008083540402835291602001916111aa565b820191906000526020600020905b81548152906001019060200180831161118d57829003601f168201915b5050505050815250509050600060038111156111c8576111c8612494565b81610120015160038111156111df576111df612494565b1480156111f057508060a001514210155b801561120057508060c001514211155b9392505050565b61120f6122f2565b6103e88111156112505760405162461bcd60e51b815260206004820152600c60248201526b08ccaca40e8dede40d0d2ced60a31b6044820152606401610544565b600b55565b60026020526000908152604090208054819061127090612938565b80601f016020809104026020016040519081016040528092919081815260200182805461129c90612938565b80156112e95780601f106112be576101008083540402835291602001916112e9565b820191906000526020600020905b8154815290600101906020018083116112cc57829003601f168201915b5050505050908060010180546112fe90612938565b80601f016020809104026020016040519081016040528092919081815260200182805461132a90612938565b80156113775780601f1061134c57610100808354040283529160200191611377565b820191906000526020600020905b81548152906001019060200180831161135a57829003601f168201915b505050506002830154600384015460048501546005909501549394919390925060ff808216916101008104821691620100009091041688565b60006113ba6122f2565b60078054600091826113cb836129bd565b9190505590506040518061010001604052808a815260200189815260200188815260200187815260200186815260200160011515815260200185600581111561141657611416612494565b815260200184600381111561142d5761142d612494565b905260008281526002602052604090208151819061144b9082612a25565b50602082015160018201906114609082612a25565b5060408201516002820155606082015160038201556080820151600482015560a08201516005808301805492151560ff1984168117825560c086015193919261ff001990911661ffff1990921691909117906101009084908111156114c7576114c7612494565b021790555060e082015160058201805462ff00001916620100008360038111156114f3576114f3612494565b0217905550905050807f23ea8c3e10556ad92e3effb1b4f48bb2c2f3344e953cdf5f0e8825a428a2fe2d8a60405161152b9190612925565b60405180910390a298975050505050505050565b606060046000838152602001908152602001600020805480602002602001604051908101604052809291908181526020016000905b828210156116de5783829060005260206000209060040201604051806080016040529081600082015481526020016001820180546115b190612938565b80601f01602080910402602001604051908101604052809291908181526020018280546115dd90612938565b801561162a5780601f106115ff5761010080835404028352916020019161162a565b820191906000526020600020905b81548152906001019060200180831161160d57829003601f168201915b505050505081526020016002820154815260200160038201805461164d90612938565b80601f016020809104026020016040519081016040528092919081815260200182805461167990612938565b80156116c65780601f1061169b576101008083540402835291602001916116c6565b820191906000526020600020905b8154815290600101906020018083116116a957829003601f168201915b50505050508152505081526020019060010190611574565b505050509050919050565b60008381526003602081815260408084208151610160810183528154815260018083015494820194909452600282015492810192909252928301546001600160a01b0390811660608301526004840154166080820152600583015460a0820152600683015460c0820152600783015460e0820152600883015490929161010084019160ff169081111561177e5761177e612494565b600181111561178f5761178f612494565b81526020016008820160019054906101000a900460ff1660038111156117b7576117b7612494565b60038111156117c8576117c8612494565b81526020016009820180546117dc90612938565b80601f016020809104026020016040519081016040528092919081815260200182805461180890612938565b80156118555780601f1061182a57610100808354040283529160200191611855565b820191906000526020600020905b81548152906001019060200180831161183857829003601f168201915b5050505050815250509050336001600160a01b031681606001516001600160a01b0316146118b85760405162461bcd60e51b815260206004820152601060248201526f4e6f7420746865206c6963656e73656560801b6044820152606401610544565b600081610120015160038111156118d1576118d1612494565b146118ee5760405162461bcd60e51b8152600401610544906128f9565b8060a00151421015801561190657508060c001514211155b6119525760405162461bcd60e51b815260206004820152601b60248201527f4c6963656e7365206e6f7420696e2076616c696420706572696f6400000000006044820152606401610544565b60008481526004602081815260408084208151608081018352898152808401898152429382019390935260608101889052815460018181018455928752939095208551939094029093019182555190918201906119af9082612a25565b5060408201516002820155606082015160038201906119ce9082612a25565b505050837fe3be139da71a054f52a1d6359cee7aaea3fbcc5a3bd149abf28520ada5fa3f3284604051611a019190612925565b60405180910390a250505050565b611a176122f2565b6001600160a01b038116611a4157604051631e4fbdf760e01b815260006004820152602401610544565b611a4a8161231f565b50565b6000828152600360208190526040909120908101546001600160a01b03163314611aac5760405162461bcd60e51b815260206004820152601060248201526f4e6f7420746865206c6963656e73656560801b6044820152606401610544565b60006008820154610100900460ff166003811115611acc57611acc612494565b14611ae95760405162461bcd60e51b8152600401610544906128f9565b80600601544210611b3c5760405162461bcd60e51b815260206004820152601760248201527f4c6963656e736520616c726561647920657870697265640000000000000000006044820152606401610544565b600181015460009081526002602052604080822081516101008101909252805482908290611b6990612938565b80601f0160208091040260200160405190810160405280929190818152602001828054611b9590612938565b8015611be25780601f10611bb757610100808354040283529160200191611be2565b820191906000526020600020905b815481529060010190602001808311611bc557829003601f168201915b50505050508152602001600182018054611bfb90612938565b80601f0160208091040260200160405190810160405280929190818152602001828054611c2790612938565b8015611c745780601f10611c4957610100808354040283529160200191611c74565b820191906000526020600020905b815481529060010190602001808311611c5757829003601f168201915b505050918352505060028201546020820152600382015460408201526004820154606082015260058083015460ff8082161515608085015260a0909301926101009091041690811115611cc957611cc9612494565b6005811115611cda57611cda612494565b81526020016005820160029054906101000a900460ff166003811115611d0257611d02612494565b6003811115611d1357611d13612494565b8152505090506000838360060154611d2b9190612ae5565b90508160800151836005015482611d4291906129aa565b1115611d905760405162461bcd60e51b815260206004820152601e60248201527f546f74616c206475726174696f6e2065786365656473206d6178696d756d00006044820152606401610544565b600080600885015460ff166001811115611dac57611dac612494565b03611e5b57611dbf836040015186611f8b565b905080341015611e085760405162461bcd60e51b8152602060048201526014602482015273125b9cdd59999a58da595b9d081c185e5b595b9d60621b6044820152606401610544565b611e16818560020154612285565b80341115611e5657336108fc611e2c83346129aa565b6040518115909202916000818181858888f19350505050158015611e54573d6000803e3d6000fd5b505b611f37565b611e69836060015186611f8b565b6009546040516323b872dd60e01b8152336004820152306024820152604481018390529192506001600160a01b0316906323b872dd906064016020604051808303816000875af1158015611ec1573d6000803e3d6000fd5b505050506040513d601f19601f82011682018060405250810190611ee59190612972565b611f295760405162461bcd60e51b8152602060048201526015602482015274151bdad95b881d1c985b9cd9995c8819985a5b1959605a1b6044820152606401610544565b611f378185600201546121d1565b81846006018190555080846007016000828254611f549190612ae5565b9091555050505050505050565b600260015403611f8457604051633ee5aeb560e01b815260040160405180910390fd5b6002600155565b600080611f9b6201518084612af8565b905080600003611fa9575060015b611fb38185612b1a565b9150505b92915050565b6008805460009182919082611fd1836129bd565b9190505590506040518061016001604052808281526020018a8152602001898152602001886001600160a01b03168152602001336001600160a01b0316815260200142815260200187426120259190612ae5565b815260200186815260200185600181111561204257612042612494565b8152602001600081526020908101859052600083815260038083526040918290208451815592840151600180850191909155918401516002840155606084015190830180546001600160a01b039283166001600160a01b031991821617909155608085015160048501805491909316911617905560a0830151600583015560c0830151600683015560e083015160078301556101008301516008830180549192909160ff19169083818111156120fa576120fa612494565b021790555061012082015160088201805461ff00191661010083600381111561212557612125612494565b0217905550610140820151600982019061213f9082612a25565b5050506001600160a01b0387166000818152600560209081526040808320805460018181018355918552838520018690558c84526006835281842080549182018155845291909220018390555182907faa646191eec5ae05708450309d7f94a103a798fe3a31b915f62ed0829ebeedf4906121bd908c815260200190565b60405180910390a398975050505050505050565b6000612710600b54846121e49190612b1a565b6121ee9190612af8565b905060006121fc82856129aa565b9050811561227f57600954600a5460405163a9059cbb60e01b81526001600160a01b0391821660048201526024810185905291169063a9059cbb906044016020604051808303816000875af1158015612259573d6000803e3d6000fd5b505050506040513d601f19601f8201168201806040525081019061227d9190612972565b505b50505050565b6000612710600b54846122989190612b1a565b6122a29190612af8565b905060006122b082856129aa565b9050811561227f57600a546040516001600160a01b039091169083156108fc029084906000818181858888f1935050505015801561227d573d6000803e3d6000fd5b6000546001600160a01b03163314610e4a5760405163118cdaa760e01b8152336004820152602401610544565b600080546001600160a01b038381166001600160a01b0319831681178455604051919092169283917f8be0079c531659141344cd1fd0a4f28419497f9722a3daafe3b4186f6b6457e09190a35050565b634e487b7160e01b600052604160045260246000fd5b600082601f83011261239657600080fd5b813567ffffffffffffffff808211156123b1576123b161236f565b604051601f8301601f19908116603f011681019082821181831017156123d9576123d961236f565b816040528381528660208588010111156123f257600080fd5b836020870160208301376000602085830101528094505050505092915050565b6000806040838503121561242557600080fd5b82359150602083013567ffffffffffffffff81111561244357600080fd5b61244f85828601612385565b9150509250929050565b6000806040838503121561246c57600080fd5b50508035926020909101359150565b60006020828403121561248d57600080fd5b5035919050565b634e487b7160e01b600052602160045260246000fd5b60048110611a4a57611a4a612494565b6000815180845260005b818110156124e0576020818501810151868301820152016124c4565b506000602082860101526020601f19601f83011685010191505092915050565b8b8152602081018b9052604081018a90526001600160a01b0389811660608301528816608082015260a0810187905260c0810186905260e0810185905260006101606002861061255257612552612494565b85610100840152612562856124aa565b846101208401528061014084015261257c818401856124ba565b9e9d5050505050505050505050505050565b600080600080608085870312156125a457600080fd5b843593506020850135925060408501359150606085013567ffffffffffffffff8111156125d057600080fd5b6125dc87828801612385565b91505092959194509250565b6020808252825182820181905260009190848201906040850190845b8181101561262057835183529284019291840191600101612604565b50909695505050505050565b80356001600160a01b038116811461264357600080fd5b919050565b6000806040838503121561265b57600080fd5b6126648361262c565b946020939093013593505050565b60006020828403121561268457600080fd5b6112008261262c565b8481526080602082015260006126a660808301866124ba565b84604084015282810360608401526126be81856124ba565b979650505050505050565b60006101008083526126dd8184018c6124ba565b905082810360208401526126f1818b6124ba565b91505087604083015286606083015285608083015284151560a08301526006841061271e5761271e612494565b8360c083015261272d836124aa565b8260e08301529998505050505050505050565b600080600080600080600060e0888a03121561275b57600080fd5b873567ffffffffffffffff8082111561277357600080fd5b61277f8b838c01612385565b985060208a013591508082111561279557600080fd5b506127a28a828b01612385565b96505060408801359450606088013593506080880135925060a0880135600681106127cc57600080fd5b915060c0880135600481106127e057600080fd5b8091505092959891949750929550565b60006020808301818452808551808352604092508286019150828160051b87010184880160005b8381101561287e57603f19898403018552815160808151855288820151818a870152612845828701826124ba565b91505087820151888601526060808301519250858203818701525061286a81836124ba565b968901969450505090860190600101612817565b509098975050505050505050565b6000806000606084860312156128a157600080fd5b83359250602084013567ffffffffffffffff808211156128c057600080fd5b6128cc87838801612385565b935060408601359150808211156128e257600080fd5b506128ef86828701612385565b9150509250925092565b6020808252601290820152714c6963656e7365206e6f742061637469766560701b604082015260600190565b60208152600061120060208301846124ba565b600181811c9082168061294c57607f821691505b60208210810361296c57634e487b7160e01b600052602260045260246000fd5b50919050565b60006020828403121561298457600080fd5b8151801515811461120057600080fd5b634e487b7160e01b600052601160045260246000fd5b81810381811115611fb757611fb7612994565b6000600182016129cf576129cf612994565b5060010190565b601f821115612a2057600081815260208120601f850160051c810160208610156129fd5750805b601f850160051c820191505b81811015612a1c57828155600101612a09565b5050505b505050565b815167ffffffffffffffff811115612a3f57612a3f61236f565b612a5381612a4d8454612938565b846129d6565b602080601f831160018114612a885760008415612a705750858301515b600019600386901b1c1916600185901b178555612a1c565b600085815260208120601f198616915b82811015612ab757888601518255948401946001909101908401612a98565b5085821015612ad55787850151600019600388901b60f8161c191681555b5050505050600190811b01905550565b80820180821115611fb757611fb7612994565b600082612b1557634e487b7160e01b600052601260045260246000fd5b500490565b8082028115828204841417611fb757611fb761299456fea264697066735822122007e17bcb46f5e063331eb8dd424c43dfd9f3ea2af5090d463a7c360f458f810a64736f6c634300081400334c6963656e736520666f7220636f6d6d65726369616c207573652077697468206174747269627574696f6e4c6963656e736520666f7220706572736f6e616c2c206e6f6e2d636f6d6d65726369616c207573654c6963656e736520666f7220657874656e64656420636f6d6d65726369616c207573652c20726f79616c74792d66726565",
  "linkReferences": {},
  "deployedLinkReferences": {}
}