{
  "_format": "hh-sol-artifact-1",
  "contractName": "MediaRegistry",
  "sourceName": "contracts/MediaRegistry.sol",
  "abi": [
    {
      "inputs": [],
      "name": "mediaCount",
      "outputs": [
        {
          "internalType": "uint256",
          "name": "",
          "type": "uint256"
        }
      ],
      "stateMutability": "view",
      "type": "function"
    },
    {
      "inputs": [
        {
          "internalType": "uint256",
          "name": "",
          "type": "uint256"
        }
      ],
      "name": "mediaRegistry",
      "outputs": [
        {
          "internalType": "string",
          "name": "hash",
          "type": "string"
        },
        {
          "internalType": "string",
          "name": "metadata",
          "type": "string"
        }
      ],
      "stateMutability": "view",
      "type": "function"
    },
    {
      "inputs": [
        {
          "internalType": "string",
          "name": "_hash",
          "type": "string"
        },
        {
          "internalType": "string",
          "name": "_metadata",
          "type": "string"
        }
      ],
      "name": "registerMedia",
      "outputs": [],
      "stateMutability": "nonpayable",
      "type": "function"
    }
  ],
  "bytecode": "0x608060405234801561001057600080fd5b50610565806100206000396000f3fe608060405234801561001057600080fd5b50600436106100415760003560e01c806335596c7c14610046578063a50176311461005b578063bafd232514610085575b600080fd5b6100596100543660046102ce565b61009c565b005b61006e610069366004610332565b6100ff565b60405161007c929190610391565b60405180910390f35b61008e60015481565b60405190815260200161007c565b604080518082018252838152602080820184905260015460009081529081905291909120815181906100ce9082610448565b50602082015160018201906100e39082610448565b505060018054915060006100f683610508565b91905055505050565b60006020819052908152604090208054819061011a906103bf565b80601f0160208091040260200160405190810160405280929190818152602001828054610146906103bf565b80156101935780601f1061016857610100808354040283529160200191610193565b820191906000526020600020905b81548152906001019060200180831161017657829003601f168201915b5050505050908060010180546101a8906103bf565b80601f01602080910402602001604051908101604052809291908181526020018280546101d4906103bf565b80156102215780601f106101f657610100808354040283529160200191610221565b820191906000526020600020905b81548152906001019060200180831161020457829003601f168201915b5050505050905082565b634e487b7160e01b600052604160045260246000fd5b600082601f83011261025257600080fd5b813567ffffffffffffffff8082111561026d5761026d61022b565b604051601f8301601f19908116603f011681019082821181831017156102955761029561022b565b816040528381528660208588010111156102ae57600080fd5b836020870160208301376000602085830101528094505050505092915050565b600080604083850312156102e157600080fd5b823567ffffffffffffffff808211156102f957600080fd5b61030586838701610241565b9350602085013591508082111561031b57600080fd5b5061032885828601610241565b9150509250929050565b60006020828403121561034457600080fd5b5035919050565b6000815180845260005b8181101561037157602081850181015186830182015201610355565b506000602082860101526020601f19601f83011685010191505092915050565b6040815260006103a4604083018561034b565b82810360208401526103b6818561034b565b95945050505050565b600181811c908216806103d357607f821691505b6020821081036103f357634e487b7160e01b600052602260045260246000fd5b50919050565b601f82111561044357600081815260208120601f850160051c810160208610156104205750805b601f850160051c820191505b8181101561043f5782815560010161042c565b5050505b505050565b815167ffffffffffffffff8111156104625761046261022b565b6104768161047084546103bf565b846103f9565b602080601f8311600181146104ab57600084156104935750858301515b600019600386901b1c1916600185901b17855561043f565b600085815260208120601f198616915b828110156104da578886015182559484019460019091019084016104bb565b50858210156104f85787850151600019600388901b60f8161c191681555b5050505050600190811b01905550565b60006001820161052857634e487b7160e01b600052601160045260246000fd5b506001019056fea264697066735822122017ea9a0fc290dcf785efb8f580533695f80deaa57b526bd3c5fa83f284b992b364736f6c63430008140033",
  "linkReferences": {},
  "deployedLinkReferences": {}
}