{
  "_format": "hh-sol-artifact-1",
  "contractName": "LicenseManager",
  "sourceName": "contracts/LicenseManager.sol",
  "abi": [
    {
      "inputs": [
        {
          "internalType": "uint256",
          "name": "_mediaId",
          "type": "uint256"
        }
      ],
      "name": "buyLicense",
      "outputs": [],
      "stateMutability": "payable",
      "type": "function"
    },
    {
      "inputs": [
        {
          "internalType": "uint256",
          "name": "",
          "type": "uint256"
        }
      ],
      "name": "licenseOwners",
      "outputs": [
        {
          "internalType": "address",
          "name": "",
          "type": "address"
        }
      ],
      "stateMutability": "view",
      "type": "function"
    },
    {
      "inputs": [
        {
          "internalType": "uint256",
          "name": "_mediaId",
          "type": "uint256"
        },
        {
          "internalType": "address",
          "name": "_to",
          "type": "address"
        }
      ],
      "name": "transferLicense",
      "outputs": [],
      "stateMutability": "nonpayable",
      "type": "function"
    }
  ],
  "bytecode": "0x608060405234801561001057600080fd5b50610259806100206000396000f3fe6080604052600436106100345760003560e01c806394610a6014610039578063cae1a69c1461008b578063e4ee7dc1146100a0575b600080fd5b34801561004557600080fd5b5061006f6100543660046101ce565b6000602081905290815260409020546001600160a01b031681565b6040516001600160a01b03909116815260200160405180910390f35b61009e6100993660046101ce565b6100c0565b005b3480156100ac57600080fd5b5061009e6100bb3660046101e7565b610142565b6000818152602081905260409020546001600160a01b0316156101225760405162461bcd60e51b8152602060048201526015602482015274131a58d95b9cd948185b1c9958591e481bdddb9959605a1b60448201526064015b60405180910390fd5b600090815260208190526040902080546001600160a01b03191633179055565b6000828152602081905260409020546001600160a01b031633146101a05760405162461bcd60e51b81526020600482015260156024820152742737ba103a3432903634b1b2b739b29037bbb732b960591b6044820152606401610119565b60009182526020829052604090912080546001600160a01b0319166001600160a01b03909216919091179055565b6000602082840312156101e057600080fd5b5035919050565b600080604083850312156101fa57600080fd5b8235915060208301356001600160a01b038116811461021857600080fd5b80915050925092905056fea2646970667358221220871f9bbcc8b7de057bd171757a4dad31ab47c0fb54f8fa6bbc6d7e950f79c0af64736f6c63430008140033",
  "linkReferences": {},
  "deployedLinkReferences": {}
}