{
  "_format": "hh-sol-artifact-1",
  "contractName": "MockERC20",
  "sourceName": "contracts/MockERC20.sol",
  "abi": [
    {
      "inputs": [
        {
          "internalType": "string",
          "name": "name",
          "type": "string"
        },
        {
          "internalType": "string",
          "name": "symbol",
          "type": "string"
        },
        {
          "internalType": "uint256",
          "name": "initialSupply",
          "type": "uint256"
        }
      ],
      "stateMutability": "nonpayable",
      "type": "constructor"
    },
    {
      "inputs": [
        {
          "internalType": "address",
          "name": "spender",
          "type": "address"
        },
        {
          "internalType": "uint256",
          "name": "allowance",
          "type": "uint256"
        },
        {
          "internalType": "uint256",
          "name": "needed",
          "type": "uint256"
        }
      ],
      "name": "ERC20InsufficientAllowance",
      "type": "error"
    },
    {
      "inputs": [
        {
          "internalType": "address",
          "name": "sender",
          "type": "address"
        },
        {
          "internalType": "uint256",
          "name": "balance",
          "type": "uint256"
        },
        {
          "internalType": "uint256",
          "name": "needed",
          "type": "uint256"
        }
      ],
      "name": "ERC20InsufficientBalance",
      "type": "error"
    },
    {
      "inputs": [
        {
          "internalType": "address",
          "name": "approver",
          "type": "address"
        }
      ],
      "name": "ERC20InvalidApprover",
      "type": "error"
    },
    {
      "inputs": [
        {
          "internalType": "address",
          "name": "receiver",
          "type": "address"
        }
      ],
      "name": "ERC20InvalidReceiver",
      "type": "error"
    },
    {
      "inputs": [
        {
          "internalType": "address",
          "name": "sender",
          "type": "address"
        }
      ],
      "name": "ERC20InvalidSender",
      "type": "error"
    },
    {
      "inputs": [
        {
          "internalType": "address",
          "name": "spender",
          "type": "address"
        }
      ],
      "name": "ERC20InvalidSpender",
      "type": "error"
    },
    {
      "inputs": [
        {
          "internalType": "address",
          "name": "owner",
          "type": "address"
        }
      ],
      "name": "OwnableInvalidOwner",
      "type": "error"
    },
    {
      "inputs": [
        {
          "internalType": "address",
          "name": "account",
          "type": "address"
        }
      ],
      "name": "OwnableUnauthorizedAccount",
      "type": "error"
    },
    {
      "anonymous": false,
      "inputs": [
        {
          "indexed": true,
          "internalType": "address",
          "name": "owner",
          "type": "address"
        },
        {
          "indexed": true,
          "internalType": "address",
          "name": "spender",
          "type": "address"
        },
        {
          "indexed": false,
          "internalType": "uint256",
          "name": "value",
          "type": "uint256"
        }
      ],
      "name": "Approval",
      "type": "event"
    },
    {
      "anonymous": false,
      "inputs": [
        {
          "indexed": true,
          "internalType": "address",
          "name": "previousOwner",
          "type": "address"
        },
        {
          "indexed": true,
          "internalType": "address",
          "name": "newOwner",
          "type": "address"
        }
      ],
      "name": "OwnershipTransferred",
      "type": "event"
    },
    {
      "anonymous": false,
      "inputs": [
        {
          "indexed": true,
          "internalType": "address",
          "name": "from",
          "type": "address"
        },
        {
          "indexed": true,
          "internalType": "address",
          "name": "to",
          "type": "address"
        },
        {
          "indexed": false,
          "internalType": "uint256",
          "name": "value",
          "type": "uint256"
        }
      ],
      "name": "Transfer",
      "type": "event"
    },
    {
      "inputs": [
        {
          "internalType": "address",
          "name": "owner",
          "type": "address"
        },
        {
          "internalType": "address",
          "name": "spender",
          "type": "address"
        }
      ],
      "name": "allowance",
      "outputs": [
        {
          "internalType": "uint256",
          "name": "",
          "type": "uint256"
        }
      ],
      "stateMutability": "view",
      "type": "function"
    },
    {
      "inputs": [
        {
          "internalType": "address",
          "name": "spender",
          "type": "address"
        },
        {
          "internalType": "uint256",
          "name": "value",
          "type": "uint256"
        }
      ],
      "name": "approve",
      "outputs": [
        {
          "internalType": "bool",
          "name": "",
          "type": "bool"
        }
      ],
      "stateMutability": "nonpayable",
      "type": "function"
    },
    {
      "inputs": [
        {
          "internalType": "address",
          "name": "account",
          "type": "address"
        }
      ],
      "name": "balanceOf",
      "outputs": [
        {
          "internalType": "uint256",
          "name": "",
          "type": "uint256"
        }
      ],
      "stateMutability": "view",
      "type": "function"
    },
    {
      "inputs": [],
      "name": "decimals",
      "outputs": [
        {
          "internalType": "uint8",
          "name": "",
          "type": "uint8"
        }
      ],
      "stateMutability": "view",
      "type": "function"
    },
    {
      "inputs": [],
      "name": "faucet",
      "outputs": [],
      "stateMutability": "nonpayable",
      "type": "function"
    },
    {
      "inputs": [
        {
          "internalType": "address",
          "name": "to",
          "type": "address"
        },
        {
          "internalType": "uint256",
          "name": "amount",
          "type": "uint256"
        }
      ],
      "name": "mint",
      "outputs": [],
      "stateMutability": "nonpayable",
      "type": "function"
    },
    {
      "inputs": [],
      "name": "name",
      "outputs": [
        {
          "internalType": "string",
          "name": "",
          "type": "string"
        }
      ],
      "stateMutability": "view",
      "type": "function"
    },
    {
      "inputs": [],
      "name": "owner",
      "outputs": [
        {
          "internalType": "address",
          "name": "",
          "type": "address"
        }
      ],
      "stateMutability": "view",
      "type": "function"
    },
    {
      "inputs": [],
      "name": "renounceOwnership",
      "outputs": [],
      "stateMutability": "nonpayable",
      "type": "function"
    },
    {
      "inputs": [],
      "name": "symbol",
      "outputs": [
        {
          "internalType": "string",
          "name": "",
          "type": "string"
        }
      ],
      "stateMutability": "view",
      "type": "function"
    },
    {
      "inputs": [],
      "name": "totalSupply",
      "outputs": [
        {
          "internalType": "uint256",
          "name": "",
          "type": "uint256"
        }
      ],
      "stateMutability": "view",
      "type": "function"
    },
    {
      "inputs": [
        {
          "internalType": "address",
          "name": "to",
          "type": "address"
        },
        {
          "internalType": "uint256",
          "name": "value",
          "type": "uint256"
        }
      ],
      "name": "transfer",
      "outputs": [
        {
          "internalType": "bool",
          "name": "",
          "type": "bool"
        }
      ],
      "stateMutability": "nonpayable",
      "type": "function"
    },
    {
      "inputs": [
        {
          "internalType": "address",
          "name": "from",
          "type": "address"
        },
        {
          "internalType": "address",
          "name": "to",
          "type": "address"
        },
        {
          "internalType": "uint256",
          "name": "value",
          "type": "uint256"
        }
      ],
      "name": "transferFrom",
      "outputs": [
        {
          "internalType": "bool",
          "name": "",
          "type": "bool"
        }
      ],
      "stateMutability": "nonpayable",
      "type": "function"
    },
    {
      "inputs": [
        {
          "internalType": "address",
          "name": "newOwner",
          "type": "address"
        }
      ],
      "name": "transferOwnership",
      "outputs": [],
      "stateMutability": "nonpayable",
      "type": "function"
    }
  ],
  "bytecode": "0x60806040523480156200001157600080fd5b5060405162000fc638038062000fc6833981016040819052620000349162000330565b338383600362000045838262000432565b50600462000054828262000432565b5050506001600160a01b0381166200008757604051631e4fbdf760e01b8152600060048201526024015b60405180910390fd5b6200009281620000a8565b506200009f3382620000fa565b50505062000526565b600580546001600160a01b038381166001600160a01b0319831681179093556040519116919082907f8be0079c531659141344cd1fd0a4f28419497f9722a3daafe3b4186f6b6457e090600090a35050565b6001600160a01b038216620001265760405163ec442f0560e01b8152600060048201526024016200007e565b620001346000838362000138565b5050565b6001600160a01b038316620001675780600260008282546200015b9190620004fe565b90915550620001db9050565b6001600160a01b03831660009081526020819052604090205481811015620001bc5760405163391434e360e21b81526001600160a01b038516600482015260248101829052604481018390526064016200007e565b6001600160a01b03841660009081526020819052604090209082900390555b6001600160a01b038216620001f95760028054829003905562000218565b6001600160a01b03821660009081526020819052604090208054820190555b816001600160a01b0316836001600160a01b03167fddf252ad1be2c89b69c2b068fc378daa952ba7f163c4a11628f55a4df523b3ef836040516200025e91815260200190565b60405180910390a3505050565b634e487b7160e01b600052604160045260246000fd5b600082601f8301126200029357600080fd5b81516001600160401b0380821115620002b057620002b06200026b565b604051601f8301601f19908116603f01168101908282118183101715620002db57620002db6200026b565b81604052838152602092508683858801011115620002f857600080fd5b600091505b838210156200031c5785820183015181830184015290820190620002fd565b600093810190920192909252949350505050565b6000806000606084860312156200034657600080fd5b83516001600160401b03808211156200035e57600080fd5b6200036c8783880162000281565b945060208601519150808211156200038357600080fd5b50620003928682870162000281565b925050604084015190509250925092565b600181811c90821680620003b857607f821691505b602082108103620003d957634e487b7160e01b600052602260045260246000fd5b50919050565b601f8211156200042d57600081815260208120601f850160051c81016020861015620004085750805b601f850160051c820191505b81811015620004295782815560010162000414565b5050505b505050565b81516001600160401b038111156200044e576200044e6200026b565b62000466816200045f8454620003a3565b84620003df565b602080601f8311600181146200049e5760008415620004855750858301515b600019600386901b1c1916600185901b17855562000429565b600085815260208120601f198616915b82811015620004cf57888601518255948401946001909101908401620004ae565b5085821015620004ee5787850151600019600388901b60f8161c191681555b5050505050600190811b01905550565b808201808211156200052057634e487b7160e01b600052601160045260246000fd5b92915050565b610a9080620005366000396000f3fe608060405234801561001057600080fd5b50600436106100ea5760003560e01c8063715018a61161008c578063a9059cbb11610066578063a9059cbb146101cd578063dd62ed3e146101e0578063de5f72fd14610219578063f2fde38b1461022157600080fd5b8063715018a6146101a25780638da5cb5b146101aa57806395d89b41146101c557600080fd5b806323b872dd116100c857806323b872dd14610142578063313ce5671461015557806340c10f191461016457806370a082311461017957600080fd5b806306fdde03146100ef578063095ea7b31461010d57806318160ddd14610130575b600080fd5b6100f7610234565b60405161010491906107c8565b60405180910390f35b61012061011b366004610832565b6102c6565b6040519015158152602001610104565b6002545b604051908152602001610104565b61012061015036600461085c565b6102e0565b60405160128152602001610104565b610177610172366004610832565b610304565b005b610134610187366004610898565b6001600160a01b031660009081526020819052604090205490565b61017761031a565b6005546040516001600160a01b039091168152602001610104565b6100f761032e565b6101206101db366004610832565b61033d565b6101346101ee3660046108ba565b6001600160a01b03918216600090815260016020908152604080832093909416825291909152205490565b61017761034b565b61017761022f366004610898565b6103e6565b606060038054610243906108ed565b80601f016020809104026020016040519081016040528092919081815260200182805461026f906108ed565b80156102bc5780601f10610291576101008083540402835291602001916102bc565b820191906000526020600020905b81548152906001019060200180831161029f57829003601f168201915b5050505050905090565b6000336102d4818585610424565b60019150505b92915050565b6000336102ee858285610436565b6102f98585856104b5565b506001949350505050565b61030c610514565b6103168282610541565b5050565b610322610514565b61032c6000610577565b565b606060048054610243906108ed565b6000336102d48185856104b5565b6103576012600a610a21565b61036390612710610a30565b33600090815260208190526040902054106103c55760405162461bcd60e51b815260206004820152601960248201527f416c72656164792068617320656e6f75676820746f6b656e730000000000000060448201526064015b60405180910390fd5b61032c336103d56012600a610a21565b6103e1906103e8610a30565b610541565b6103ee610514565b6001600160a01b03811661041857604051631e4fbdf760e01b8152600060048201526024016103bc565b61042181610577565b50565b61043183838360016105c9565b505050565b6001600160a01b038381166000908152600160209081526040808320938616835292905220546000198110156104af57818110156104a057604051637dc7a0d960e11b81526001600160a01b038416600482015260248101829052604481018390526064016103bc565b6104af848484840360006105c9565b50505050565b6001600160a01b0383166104df57604051634b637e8f60e11b8152600060048201526024016103bc565b6001600160a01b0382166105095760405163ec442f0560e01b8152600060048201526024016103bc565b61043183838361069e565b6005546001600160a01b0316331461032c5760405163118cdaa760e01b81523360048201526024016103bc565b6001600160a01b03821661056b5760405163ec442f0560e01b8152600060048201526024016103bc565b6103166000838361069e565b600580546001600160a01b038381166001600160a01b0319831681179093556040519116919082907f8be0079c531659141344cd1fd0a4f28419497f9722a3daafe3b4186f6b6457e090600090a35050565b6001600160a01b0384166105f35760405163e602df0560e01b8152600060048201526024016103bc565b6001600160a01b03831661061d57604051634a1406b160e11b8152600060048201526024016103bc565b6001600160a01b03808516600090815260016020908152604080832093871683529290522082905580156104af57826001600160a01b0316846001600160a01b03167f8c5be1e5ebec7d5bd14f71427d1e84f3dd0314c0f7b2291e5b200ac8c7c3b9258460405161069091815260200190565b60405180910390a350505050565b6001600160a01b0383166106c95780600260008282546106be9190610a47565b9091555061073b9050565b6001600160a01b0383166000908152602081905260409020548181101561071c5760405163391434e360e21b81526001600160a01b038516600482015260248101829052604481018390526064016103bc565b6001600160a01b03841660009081526020819052604090209082900390555b6001600160a01b03821661075757600280548290039055610776565b6001600160a01b03821660009081526020819052604090208054820190555b816001600160a01b0316836001600160a01b03167fddf252ad1be2c89b69c2b068fc378daa952ba7f163c4a11628f55a4df523b3ef836040516107bb91815260200190565b60405180910390a3505050565b600060208083528351808285015260005b818110156107f5578581018301518582016040015282016107d9565b506000604082860101526040601f19601f8301168501019250505092915050565b80356001600160a01b038116811461082d57600080fd5b919050565b6000806040838503121561084557600080fd5b61084e83610816565b946020939093013593505050565b60008060006060848603121561087157600080fd5b61087a84610816565b925061088860208501610816565b9150604084013590509250925092565b6000602082840312156108aa57600080fd5b6108b382610816565b9392505050565b600080604083850312156108cd57600080fd5b6108d683610816565b91506108e460208401610816565b90509250929050565b600181811c9082168061090157607f821691505b60208210810361092157634e487b7160e01b600052602260045260246000fd5b50919050565b634e487b7160e01b600052601160045260246000fd5b600181815b8085111561097857816000190482111561095e5761095e610927565b8085161561096b57918102915b93841c9390800290610942565b509250929050565b60008261098f575060016102da565b8161099c575060006102da565b81600181146109b257600281146109bc576109d8565b60019150506102da565b60ff8411156109cd576109cd610927565b50506001821b6102da565b5060208310610133831016604e8410600b84101617156109fb575081810a6102da565b610a05838361093d565b8060001904821115610a1957610a19610927565b029392505050565b60006108b360ff841683610980565b80820281158282048414176102da576102da610927565b808201808211156102da576102da61092756fea264697066735822122077f3320a2db8dceb78b57ae9622e6029c5ef173775b700b3a44cbccb4063b5da64736f6c63430008140033",
  "linkReferences": {},
  "deployedLinkReferences": {}
}