{
  "_format": "hh-sol-artifact-1",
  "contractName": "ContentAuthenticator",
  "sourceName": "contracts/ContentAuthenticator.sol",
  "abi": [
    {
      "inputs": [
        {
          "internalType": "address",
          "name": "initialOwner",
          "type": "address"
        }
      ],
      "stateMutability": "nonpayable",
      "type": "constructor"
    },
    {
      "inputs": [],
      "name": "ECDSAInvalidSignature",
      "type": "error"
    },
    {
      "inputs": [
        {
          "internalType": "uint256",
          "name": "length",
          "type": "uint256"
        }
      ],
      "name": "ECDSAInvalidSignatureLength",
      "type": "error"
    },
    {
      "inputs": [
        {
          "internalType": "bytes32",
          "name": "s",
          "type": "bytes32"
        }
      ],
      "name": "ECDSAInvalidSignatureS",
      "type": "error"
    },
    {
      "inputs": [
        {
          "internalType": "address",
          "name": "owner",
          "type": "address"
        }
      ],
      "name": "OwnableInvalidOwner",
      "type": "error"
    },
    {
      "inputs": [
        {
          "internalType": "address",
          "name": "account",
          "type": "address"
        }
      ],
      "name": "OwnableUnauthorizedAccount",
      "type": "error"
    },
    {
      "anonymous": false,
      "inputs": [
        {
          "indexed": true,
          "internalType": "string",
          "name": "contentHash",
          "type": "string"
        },
        {
          "indexed": true,
          "internalType": "address",
          "name": "creator",
          "type": "address"
        },
        {
          "indexed": false,
          "internalType": "uint256",
          "name": "nftTokenId",
          "type": "uint256"
        }
      ],
      "name": "ContentRegistered",
      "type": "event"
    },
    {
      "anonymous": false,
      "inputs": [
        {
          "indexed": true,
          "internalType": "string",
          "name": "contentHash",
          "type": "string"
        },
        {
          "indexed": true,
          "internalType": "address",
          "name": "verifier",
          "type": "address"
        }
      ],
      "name": "ContentVerified",
      "type": "event"
    },
    {
      "anonymous": false,
      "inputs": [
        {
          "indexed": true,
          "internalType": "address",
          "name": "previousOwner",
          "type": "address"
        },
        {
          "indexed": true,
          "internalType": "address",
          "name": "newOwner",
          "type": "address"
        }
      ],
      "name": "OwnershipTransferred",
      "type": "event"
    },
    {
      "anonymous": false,
      "inputs": [
        {
          "indexed": true,
          "internalType": "uint256",
          "name": "requestId",
          "type": "uint256"
        },
        {
          "indexed": false,
          "internalType": "enum ContentAuthenticator.VerificationStatus",
          "name": "status",
          "type": "uint8"
        }
      ],
      "name": "VerificationCompleted",
      "type": "event"
    },
    {
      "anonymous": false,
      "inputs": [
        {
          "indexed": true,
          "internalType": "uint256",
          "name": "requestId",
          "type": "uint256"
        },
        {
          "indexed": false,
          "internalType": "string",
          "name": "contentHash",
          "type": "string"
        },
        {
          "indexed": false,
          "internalType": "address",
          "name": "requester",
          "type": "address"
        }
      ],
      "name": "VerificationRequested",
      "type": "event"
    },
    {
      "anonymous": false,
      "inputs": [
        {
          "indexed": true,
          "internalType": "address",
          "name": "verifier",
          "type": "address"
        }
      ],
      "name": "VerifierAuthorized",
      "type": "event"
    },
    {
      "anonymous": false,
      "inputs": [
        {
          "indexed": true,
          "internalType": "address",
          "name": "verifier",
          "type": "address"
        }
      ],
      "name": "VerifierRevoked",
      "type": "event"
    },
    {
      "inputs": [
        {
          "internalType": "uint256",
          "name": "",
          "type": "uint256"
        }
      ],
      "name": "allContentHashes",
      "outputs": [
        {
          "internalType": "string",
          "name": "",
          "type": "string"
        }
      ],
      "stateMutability": "view",
      "type": "function"
    },
    {
      "inputs": [
        {
          "internalType": "address",
          "name": "verifier",
          "type": "address"
        }
      ],
      "name": "authorizeVerifier",
      "outputs": [],
      "stateMutability": "nonpayable",
      "type": "function"
    },
    {
      "inputs": [
        {
          "internalType": "address",
          "name": "",
          "type": "address"
        }
      ],
      "name": "authorizedVerifiers",
      "outputs": [
        {
          "internalType": "bool",
          "name": "",
          "type": "bool"
        }
      ],
      "stateMutability": "view",
      "type": "function"
    },
    {
      "inputs": [
        {
          "internalType": "string[]",
          "name": "contentHashes",
          "type": "string[]"
        }
      ],
      "name": "batchVerifyContent",
      "outputs": [],
      "stateMutability": "nonpayable",
      "type": "function"
    },
    {
      "inputs": [
        {
          "internalType": "uint256",
          "name": "requestId",
          "type": "uint256"
        },
        {
          "internalType": "enum ContentAuthenticator.VerificationStatus",
          "name": "status",
          "type": "uint8"
        },
        {
          "internalType": "string",
          "name": "verificationData",
          "type": "string"
        }
      ],
      "name": "completeVerification",
      "outputs": [],
      "stateMutability": "nonpayable",
      "type": "function"
    },
    {
      "inputs": [
        {
          "internalType": "string",
          "name": "",
          "type": "string"
        }
      ],
      "name": "contentExists",
      "outputs": [
        {
          "internalType": "bool",
          "name": "",
          "type": "bool"
        }
      ],
      "stateMutability": "view",
      "type": "function"
    },
    {
      "inputs": [
        {
          "internalType": "string",
          "name": "",
          "type": "string"
        }
      ],
      "name": "contentRecords",
      "outputs": [
        {
          "internalType": "string",
          "name": "contentHash",
          "type": "string"
        },
        {
          "internalType": "string",
          "name": "ipfsHash",
          "type": "string"
        },
        {
          "internalType": "address",
          "name": "creator",
          "type": "address"
        },
        {
          "internalType": "uint256",
          "name": "timestamp",
          "type": "uint256"
        },
        {
          "internalType": "string",
          "name": "metadata",
          "type": "string"
        },
        {
          "internalType": "bool",
          "name": "isVerified",
          "type": "bool"
        },
        {
          "internalType": "uint256",
          "name": "nftTokenId",
          "type": "uint256"
        },
        {
          "internalType": "enum ContentAuthenticator.ContentType",
          "name": "contentType",
          "type": "uint8"
        },
        {
          "internalType": "bytes",
          "name": "creatorSignature",
          "type": "bytes"
        }
      ],
      "stateMutability": "view",
      "type": "function"
    },
    {
      "inputs": [
        {
          "internalType": "address",
          "name": "",
          "type": "address"
        },
        {
          "internalType": "uint256",
          "name": "",
          "type": "uint256"
        }
      ],
      "name": "creatorContent",
      "outputs": [
        {
          "internalType": "string",
          "name": "",
          "type": "string"
        }
      ],
      "stateMutability": "view",
      "type": "function"
    },
    {
      "inputs": [
        {
          "internalType": "uint256",
          "name": "index",
          "type": "uint256"
        }
      ],
      "name": "getContentHashByIndex",
      "outputs": [
        {
          "internalType": "string",
          "name": "",
          "type": "string"
        }
      ],
      "stateMutability": "view",
      "type": "function"
    },
    {
      "inputs": [
        {
          "internalType": "string",
          "name": "contentHash",
          "type": "string"
        }
      ],
      "name": "getContentMetadata",
      "outputs": [
        {
          "internalType": "string",
          "name": "ipfsHash",
          "type": "string"
        },
        {
          "internalType": "string",
          "name": "metadata",
          "type": "string"
        },
        {
          "internalType": "enum ContentAuthenticator.ContentType",
          "name": "contentType",
          "type": "uint8"
        },
        {
          "internalType": "uint256",
          "name": "timestamp",
          "type": "uint256"
        }
      ],
      "stateMutability": "view",
      "type": "function"
    },
    {
      "inputs": [
        {
          "internalType": "address",
          "name": "creator",
          "type": "address"
        }
      ],
      "name": "getCreatorContent",
      "outputs": [
        {
          "internalType": "string[]",
          "name": "",
          "type": "string[]"
        }
      ],
      "stateMutability": "view",
      "type": "function"
    },
    {
      "inputs": [],
      "name": "getTotalContentCount",
      "outputs": [
        {
          "internalType": "uint256",
          "name": "",
          "type": "uint256"
        }
      ],
      "stateMutability": "view",
      "type": "function"
    },
    {
      "inputs": [
        {
          "internalType": "uint256",
          "name": "requestId",
          "type": "uint256"
        }
      ],
      "name": "getVerificationRequest",
      "outputs": [
        {
          "components": [
            {
              "internalType": "uint256",
              "name": "requestId",
              "type": "uint256"
            },
            {
              "internalType": "string",
              "name": "contentHash",
              "type": "string"
            },
            {
              "internalType": "address",
              "name": "requester",
              "type": "address"
            },
            {
              "internalType": "uint256",
              "name": "timestamp",
              "type": "uint256"
            },
            {
              "internalType": "enum ContentAuthenticator.VerificationStatus",
              "name": "status",
              "type": "uint8"
            },
            {
              "internalType": "string",
              "name": "verificationData",
              "type": "string"
            }
          ],
          "internalType": "struct ContentAuthenticator.VerificationRequest",
          "name": "",
          "type": "tuple"
        }
      ],
      "stateMutability": "view",
      "type": "function"
    },
    {
      "inputs": [
        {
          "internalType": "address",
          "name": "verifier",
          "type": "address"
        }
      ],
      "name": "isAuthorizedVerifier",
      "outputs": [
        {
          "internalType": "bool",
          "name": "",
          "type": "bool"
        }
      ],
      "stateMutability": "view",
      "type": "function"
    },
    {
      "inputs": [],
      "name": "owner",
      "outputs": [
        {
          "internalType": "address",
          "name": "",
          "type": "address"
        }
      ],
      "stateMutability": "view",
      "type": "function"
    },
    {
      "inputs": [
        {
          "internalType": "string",
          "name": "contentHash",
          "type": "string"
        },
        {
          "internalType": "string",
          "name": "ipfsHash",
          "type": "string"
        },
        {
          "internalType": "string",
          "name": "metadata",
          "type": "string"
        },
        {
          "internalType": "enum ContentAuthenticator.ContentType",
          "name": "contentType",
          "type": "uint8"
        },
        {
          "internalType": "uint256",
          "name": "nftTokenId",
          "type": "uint256"
        },
        {
          "internalType": "bytes",
          "name": "signature",
          "type": "bytes"
        }
      ],
      "name": "registerContent",
      "outputs": [
        {
          "internalType": "bool",
          "name": "",
          "type": "bool"
        }
      ],
      "stateMutability": "nonpayable",
      "type": "function"
    },
    {
      "inputs": [],
      "name": "renounceOwnership",
      "outputs": [],
      "stateMutability": "nonpayable",
      "type": "function"
    },
    {
      "inputs": [
        {
          "internalType": "string",
          "name": "contentHash",
          "type": "string"
        },
        {
          "internalType": "string",
          "name": "verificationData",
          "type": "string"
        }
      ],
      "name": "requestVerification",
      "outputs": [
        {
          "internalType": "uint256",
          "name": "",
          "type": "uint256"
        }
      ],
      "stateMutability": "nonpayable",
      "type": "function"
    },
    {
      "inputs": [
        {
          "internalType": "address",
          "name": "verifier",
          "type": "address"
        }
      ],
      "name": "revokeVerifier",
      "outputs": [],
      "stateMutability": "nonpayable",
      "type": "function"
    },
    {
      "inputs": [
        {
          "internalType": "address",
          "name": "creator",
          "type": "address"
        },
        {
          "internalType": "enum ContentAuthenticator.ContentType",
          "name": "contentType",
          "type": "uint8"
        },
        {
          "internalType": "bool",
          "name": "verifiedOnly",
          "type": "bool"
        }
      ],
      "name": "searchContent",
      "outputs": [
        {
          "internalType": "string[]",
          "name": "",
          "type": "string[]"
        }
      ],
      "stateMutability": "view",
      "type": "function"
    },
    {
      "inputs": [
        {
          "internalType": "address",
          "name": "newOwner",
          "type": "address"
        }
      ],
      "name": "transferOwnership",
      "outputs": [],
      "stateMutability": "nonpayable",
      "type": "function"
    },
    {
      "inputs": [
        {
          "internalType": "string",
          "name": "contentHash",
          "type": "string"
        },
        {
          "internalType": "uint256",
          "name": "nftTokenId",
          "type": "uint256"
        }
      ],
      "name": "updateNFTTokenId",
      "outputs": [],
      "stateMutability": "nonpayable",
      "type": "function"
    },
    {
      "inputs": [
        {
          "internalType": "string",
          "name": "contentHash",
          "type": "string"
        },
        {
          "internalType": "address",
          "name": "expectedCreator",
          "type": "address"
        }
      ],
      "name": "validateCreator",
      "outputs": [
        {
          "internalType": "bool",
          "name": "",
          "type": "bool"
        }
      ],
      "stateMutability": "view",
      "type": "function"
    },
    {
      "inputs": [],
      "name": "verificationRequestCounter",
      "outputs": [
        {
          "internalType": "uint256",
          "name": "",
          "type": "uint256"
        }
      ],
      "stateMutability": "view",
      "type": "function"
    },
    {
      "inputs": [
        {
          "internalType": "uint256",
          "name": "",
          "type": "uint256"
        }
      ],
      "name": "verificationRequests",
      "outputs": [
        {
          "internalType": "uint256",
          "name": "requestId",
          "type": "uint256"
        },
        {
          "internalType": "string",
          "name": "contentHash",
          "type": "string"
        },
        {
          "internalType": "address",
          "name": "requester",
          "type": "address"
        },
        {
          "internalType": "uint256",
          "name": "timestamp",
          "type": "uint256"
        },
        {
          "internalType": "enum ContentAuthenticator.VerificationStatus",
          "name": "status",
          "type": "uint8"
        },
        {
          "internalType": "string",
          "name": "verificationData",
          "type": "string"
        }
      ],
      "stateMutability": "view",
      "type": "function"
    },
    {
      "inputs": [
        {
          "internalType": "string",
          "name": "contentHash",
          "type": "string"
        }
      ],
      "name": "verifyContent",
      "outputs": [
        {
          "internalType": "bool",
          "name": "exists",
          "type": "bool"
        },
        {
          "internalType": "address",
          "name": "creator",
          "type": "address"
        },
        {
          "internalType": "uint256",
          "name": "timestamp",
          "type": "uint256"
        },
        {
          "internalType": "bool",
          "name": "isVerified",
          "type": "bool"
        },
        {
          "internalType": "uint256",
          "name": "nftTokenId",
          "type": "uint256"
        }
      ],
      "stateMutability": "view",
      "type": "function"
    },
    {
      "inputs": [
        {
          "internalType": "string",
          "name": "contentHash",
          "type": "string"
        },
        {
          "internalType": "address",
          "name": "expectedSigner",
          "type": "address"
        },
        {
          "internalType": "bytes",
          "name": "signature",
          "type": "bytes"
        }
      ],
      "name": "verifyContentSignature",
      "outputs": [
        {
          "internalType": "bool",
          "name": "",
          "type": "bool"
        }
      ],
      "stateMutability": "pure",
      "type": "function"
    }
  ],
  "bytecode": "0x60806040523480156200001157600080fd5b50604051620034d8380380620034d88339810160408190526200003491620000e8565b806001600160a01b0381166200006457604051631e4fbdf760e01b81526000600482015260240160405180910390fd5b6200006f8162000098565b506001600160a01b03166000908152600560205260409020805460ff191660011790556200011a565b600080546001600160a01b038381166001600160a01b0319831681178455604051919092169283917f8be0079c531659141344cd1fd0a4f28419497f9722a3daafe3b4186f6b6457e09190a35050565b600060208284031215620000fb57600080fd5b81516001600160a01b03811681146200011357600080fd5b9392505050565b6133ae806200012a6000396000f3fe608060405234801561001057600080fd5b50600436106101a95760003560e01c806357b63246116100f95780638e0af4c211610097578063bd869a4211610071578063bd869a4214610450578063e71ca93814610463578063eb9502081461046c578063f2fde38b1461047f57600080fd5b80638e0af4c2146103f75780639a8917161461041a578063bd02a2351461043d57600080fd5b80636cacbf30116100d35780636cacbf301461037a578063715018a6146103a65780637a211063146103ae5780638da5cb5b146103dc57600080fd5b806357b6324614610341578063669cb64c146103545780636a480eb81461036757600080fd5b806331d95dd0116101665780633f37fa01116101405780633f37fa01146102ce5780634089d49f146102f6578063431a18311461031b5780634de2bfbf1461032e57600080fd5b806331d95dd01461028957806338389e0e1461029b5780633a13d3a3146102ae57600080fd5b8063011c6756146101ae578063072f3952146101d757806320ad8cab146101ec57806322453b3a146101ff57806322ccb4741461024657806330c9f1f514610266575b600080fd5b6101c16101bc366004612963565b610492565b6040516101ce91906129d5565b60405180910390f35b6101ea6101e5366004612aec565b610581565b005b6101ea6101fa366004612963565b6106eb565b61021261020d366004612bae565b61079d565b6040805195151586526001600160a01b0390941660208601529284019190915215156060830152608082015260a0016101ce565b610259610254366004612bea565b610aef565b6040516101ce9190612c2d565b610279610274366004612ca8565b610ce0565b60405190151581526020016101ce565b6007545b6040519081526020016101ce565b6101ea6102a9366004612cf5565b610d51565b6102c16102bc366004612bea565b610e51565b6040516101ce9190612d39565b6102e16102dc366004612bae565b610f48565b6040516101ce99989796959493929190612d5c565b610309610304366004612bea565b6111d3565b6040516101ce96959493929190612dee565b610279610329366004612e3c565b61132b565b61028d61033c366004612eaf565b6113bb565b6102c161034f366004612bea565b611569565b6101ea610362366004612f12565b611615565b6102c1610375366004612f64565b61182e565b610279610388366004612963565b6001600160a01b031660009081526005602052604090205460ff1690565b6101ea611866565b6102796103bc366004612bae565b805160208183018101805160028252928201919093012091525460ff1681565b6000546040516001600160a01b0390911681526020016101ce565b61040a610405366004612bae565b61187a565b6040516101ce9493929190612f8e565b610279610428366004612963565b60056020526000908152604090205460ff1681565b6101ea61044b366004612963565b611bea565b61027961045e366004612fe1565b611cf6565b61028d60065481565b6101c161047a3660046130a6565b6120ae565b6101ea61048d366004612963565b61263d565b6001600160a01b0381166000908152600360209081526040808320805482518185028101850190935280835260609492939192909184015b828210156105765783829060005260206000200180546104e9906130f2565b80601f0160208091040260200160405190810160405280929190818152602001828054610515906130f2565b80156105625780601f1061053757610100808354040283529160200191610562565b820191906000526020600020905b81548152906001019060200180831161054557829003601f168201915b5050505050815260200190600101906104ca565b505050509050919050565b3360009081526005602052604090205460ff166105df5760405162461bcd60e51b81526020600482015260176024820152762737ba1030baba3437b934bd32b2103b32b934b334b2b960491b60448201526064015b60405180910390fd5b60005b81518110156106e75760028282815181106105ff576105ff61312c565b60200260200101516040516106149190613142565b9081526040519081900360200190205460ff16156106d5576001808383815181106106415761064161312c565b60200260200101516040516106569190613142565b908152604051908190036020019020600501805491151560ff199092169190911790558151339083908390811061068f5761068f61312c565b60200260200101516040516106a49190613142565b604051908190038120907fc263f80b6838530f3ddd8e7d3b933e19e342e1239f45580c814ef62effab5a7390600090a35b806106df8161315e565b9150506105e2565b5050565b6106f361267b565b6001600160a01b03811660009081526005602052604090205460ff16156107515760405162461bcd60e51b8152602060048201526012602482015271105b1c9958591e48185d5d1a1bdc9a5e995960721b60448201526064016105d6565b6001600160a01b038116600081815260056020526040808220805460ff19166001179055517f40f8611cb3470e9d255c7ea6d08e5625d635123c46e7c303e5321b1fb69bb8c99190a250565b60008060008060006002866040516107b59190613142565b9081526040519081900360200190205460ff1615610ad65760006001876040516107df9190613142565b908152602001604051809103902060405180610120016040529081600082018054610809906130f2565b80601f0160208091040260200160405190810160405280929190818152602001828054610835906130f2565b80156108825780601f1061085757610100808354040283529160200191610882565b820191906000526020600020905b81548152906001019060200180831161086557829003601f168201915b5050505050815260200160018201805461089b906130f2565b80601f01602080910402602001604051908101604052809291908181526020018280546108c7906130f2565b80156109145780601f106108e957610100808354040283529160200191610914565b820191906000526020600020905b8154815290600101906020018083116108f757829003601f168201915b505050918352505060028201546001600160a01b031660208201526003820154604082015260048201805460609092019161094e906130f2565b80601f016020809104026020016040519081016040528092919081815260200182805461097a906130f2565b80156109c75780601f1061099c576101008083540402835291602001916109c7565b820191906000526020600020905b8154815290600101906020018083116109aa57829003601f168201915b505050918352505060058281015460ff908116151560208401526006840154604084015260078401546060909301921690811115610a0757610a07612c03565b6005811115610a1857610a18612c03565b8152602001600882018054610a2c906130f2565b80601f0160208091040260200160405190810160405280929190818152602001828054610a58906130f2565b8015610aa55780601f10610a7a57610100808354040283529160200191610aa5565b820191906000526020600020905b815481529060010190602001808311610a8857829003601f168201915b50505050508152505090506001816040015182606001518360a001518460c001519550955095509550955050610ae6565b5060009350839250829150819050805b91939590929450565b610af76128f7565b6006548210610b3d5760405162461bcd60e51b8152602060048201526012602482015271125b9d985b1a59081c995c5d595cdd08125160721b60448201526064016105d6565b600460008381526020019081526020016000206040518060c001604052908160008201548152602001600182018054610b75906130f2565b80601f0160208091040260200160405190810160405280929190818152602001828054610ba1906130f2565b8015610bee5780601f10610bc357610100808354040283529160200191610bee565b820191906000526020600020905b815481529060010190602001808311610bd157829003601f168201915b505050918352505060028201546001600160a01b031660208201526003808301546040830152600483015460609092019160ff1690811115610c3257610c32612c03565b6003811115610c4357610c43612c03565b8152602001600582018054610c57906130f2565b80601f0160208091040260200160405190810160405280929190818152602001828054610c83906130f2565b8015610cd05780601f10610ca557610100808354040283529160200191610cd0565b820191906000526020600020905b815481529060010190602001808311610cb357829003601f168201915b5050505050815250509050919050565b6000600283604051610cf29190613142565b9081526040519081900360200190205460ff16610d1157506000610d4b565b816001600160a01b0316600184604051610d2b9190613142565b908152604051908190036020019020600201546001600160a01b03161490505b92915050565b600282604051610d619190613142565b9081526040519081900360200190205460ff16610db45760405162461bcd60e51b815260206004820152601160248201527010dbdb9d195b9d081b9bdd08199bdd5b99607a1b60448201526064016105d6565b336001600160a01b0316600183604051610dce9190613142565b908152604051908190036020019020600201546001600160a01b031614610e295760405162461bcd60e51b815260206004820152600f60248201526e2737ba103a34329031b932b0ba37b960891b60448201526064016105d6565b80600183604051610e3a9190613142565b908152604051908190036020019020600601555050565b6007546060908210610e9b5760405162461bcd60e51b8152602060048201526013602482015272496e646578206f7574206f6620626f756e647360681b60448201526064016105d6565b60078281548110610eae57610eae61312c565b906000526020600020018054610ec3906130f2565b80601f0160208091040260200160405190810160405280929190818152602001828054610eef906130f2565b8015610f3c5780601f10610f1157610100808354040283529160200191610f3c565b820191906000526020600020905b815481529060010190602001808311610f1f57829003601f168201915b50505050509050919050565b8051602081830181018051600182529282019190930120915280548190610f6e906130f2565b80601f0160208091040260200160405190810160405280929190818152602001828054610f9a906130f2565b8015610fe75780601f10610fbc57610100808354040283529160200191610fe7565b820191906000526020600020905b815481529060010190602001808311610fca57829003601f168201915b505050505090806001018054610ffc906130f2565b80601f0160208091040260200160405190810160405280929190818152602001828054611028906130f2565b80156110755780601f1061104a57610100808354040283529160200191611075565b820191906000526020600020905b81548152906001019060200180831161105857829003601f168201915b505050506002830154600384015460048501805494956001600160a01b0390931694919350906110a4906130f2565b80601f01602080910402602001604051908101604052809291908181526020018280546110d0906130f2565b801561111d5780601f106110f25761010080835404028352916020019161111d565b820191906000526020600020905b81548152906001019060200180831161110057829003601f168201915b50505050600583015460068401546007850154600886018054959660ff94851696939550939091169291611150906130f2565b80601f016020809104026020016040519081016040528092919081815260200182805461117c906130f2565b80156111c95780601f1061119e576101008083540402835291602001916111c9565b820191906000526020600020905b8154815290600101906020018083116111ac57829003601f168201915b5050505050905089565b600460205260009081526040902080546001820180549192916111f5906130f2565b80601f0160208091040260200160405190810160405280929190818152602001828054611221906130f2565b801561126e5780601f106112435761010080835404028352916020019161126e565b820191906000526020600020905b81548152906001019060200180831161125157829003601f168201915b50505060028401546003850154600486015460058701805496976001600160a01b039094169692955060ff9091169350906112a8906130f2565b80601f01602080910402602001604051908101604052809291908181526020018280546112d4906130f2565b80156113215780601f106112f657610100808354040283529160200191611321565b820191906000526020600020905b81548152906001019060200180831161130457829003601f168201915b5050505050905086565b6000808484604051602001611341929190613185565b6040516020818303038152906040528051906020012090506000611392827f19457468657265756d205369676e6564204d6573736167653a0a3332000000006000908152601c91909152603c902090565b905060006113a082866126a8565b6001600160a01b039081169087161493505050509392505050565b60006002836040516113cd9190613142565b9081526040519081900360200190205460ff166114255760405162461bcd60e51b815260206004820152601660248201527510dbdb9d195b9d081b9bdd081c9959da5cdd195c995960521b60448201526064016105d6565b60068054600091826114368361315e565b9190505590506040518060c00160405280828152602001858152602001336001600160a01b031681526020014281526020016000600381111561147b5761147b612c03565b8152602090810185905260008381526004825260409020825181559082015160018201906114a9908261320b565b5060408201518160020160006101000a8154816001600160a01b0302191690836001600160a01b031602179055506060820151816003015560808201518160040160006101000a81548160ff0219169083600381111561150b5761150b612c03565b021790555060a08201516005820190611524908261320b565b50905050807fd8772f50f014e5b02c03c9358de8dd171a9abb9be51b416f7c4dbfd4d16b6e1b853360405161155a9291906132ca565b60405180910390a29392505050565b6007818154811061157957600080fd5b906000526020600020016000915090508054611594906130f2565b80601f01602080910402602001604051908101604052809291908181526020018280546115c0906130f2565b801561160d5780601f106115e25761010080835404028352916020019161160d565b820191906000526020600020905b8154815290600101906020018083116115f057829003601f168201915b505050505081565b3360009081526005602052604090205460ff1661166e5760405162461bcd60e51b81526020600482015260176024820152762737ba1030baba3437b934bd32b2103b32b934b334b2b960491b60448201526064016105d6565b60065483106116b45760405162461bcd60e51b8152602060048201526012602482015271125b9d985b1a59081c995c5d595cdd08125160721b60448201526064016105d6565b600083815260046020526040812090600482015460ff1660038111156116dc576116dc612c03565b146117295760405162461bcd60e51b815260206004820152601960248201527f5265717565737420616c72656164792070726f6365737365640000000000000060448201526064016105d6565b60048101805484919060ff1916600183600381111561174a5761174a612c03565b02179055506005810161175d838261320b565b50600183600381111561177257611772612c03565b036117f0576001808260010160405161178b91906132f4565b908152604051908190036020018120600501805492151560ff199093169290921790915533906117bf9060018401906132f4565b604051908190038120907fc263f80b6838530f3ddd8e7d3b933e19e342e1239f45580c814ef62effab5a7390600090a35b837ff2421de8d69bddf31d6364d54d7a4c740d840beb4530d3d2111e84747e1a2bcb84604051611820919061336a565b60405180910390a250505050565b6003602052816000526040600020818154811061184a57600080fd5b90600052602060002001600091509150508054611594906130f2565b61186e61267b565b61187860006126d2565b565b6060806000806002856040516118909190613142565b9081526040519081900360200190205460ff166118e35760405162461bcd60e51b815260206004820152601160248201527010dbdb9d195b9d081b9bdd08199bdd5b99607a1b60448201526064016105d6565b60006001866040516118f59190613142565b90815260200160405180910390206040518061012001604052908160008201805461191f906130f2565b80601f016020809104026020016040519081016040528092919081815260200182805461194b906130f2565b80156119985780601f1061196d57610100808354040283529160200191611998565b820191906000526020600020905b81548152906001019060200180831161197b57829003601f168201915b505050505081526020016001820180546119b1906130f2565b80601f01602080910402602001604051908101604052809291908181526020018280546119dd906130f2565b8015611a2a5780601f106119ff57610100808354040283529160200191611a2a565b820191906000526020600020905b815481529060010190602001808311611a0d57829003601f168201915b505050918352505060028201546001600160a01b0316602082015260038201546040820152600482018054606090920191611a64906130f2565b80601f0160208091040260200160405190810160405280929190818152602001828054611a90906130f2565b8015611add5780601f10611ab257610100808354040283529160200191611add565b820191906000526020600020905b815481529060010190602001808311611ac057829003601f168201915b505050918352505060058281015460ff908116151560208401526006840154604084015260078401546060909301921690811115611b1d57611b1d612c03565b6005811115611b2e57611b2e612c03565b8152602001600882018054611b42906130f2565b80601f0160208091040260200160405190810160405280929190818152602001828054611b6e906130f2565b8015611bbb5780601f10611b9057610100808354040283529160200191611bbb565b820191906000526020600020905b815481529060010190602001808311611b9e57829003601f168201915b5050505050815250509050806020015181608001518260e0015183606001519450945094509450509193509193565b611bf261267b565b6001600160a01b03811660009081526005602052604090205460ff16611c4b5760405162461bcd60e51b815260206004820152600e60248201526d139bdd08185d5d1a1bdc9a5e995960921b60448201526064016105d6565b6000546001600160a01b03166001600160a01b0316816001600160a01b031603611cad5760405162461bcd60e51b815260206004820152601360248201527221b0b73737ba103932bb37b5b29037bbb732b960691b60448201526064016105d6565b6001600160a01b038116600081815260056020526040808220805460ff19169055517fb48d1366d07d4afdd2b73cbb6f7c9c23d71c2c9478252d6b97492dfd3819e7c79190a250565b6000600287604051611d089190613142565b9081526040519081900360200190205460ff1615611d685760405162461bcd60e51b815260206004820152601a60248201527f436f6e74656e7420616c7265616479207265676973746572656400000000000060448201526064016105d6565b6000875111611db15760405162461bcd60e51b815260206004820152601560248201527410dbdb9d195b9d081a185cda081c995c5d5a5c9959605a1b60448201526064016105d6565b60008733604051602001611dc6929190613185565b6040516020818303038152906040528051906020012090506000611e17827f19457468657265756d205369676e6564204d6573736167653a0a3332000000006000908152601c91909152603c902090565b90506000611e2582866126a8565b90506001600160a01b0381163314611e735760405162461bcd60e51b8152602060048201526011602482015270496e76616c6964207369676e617475726560781b60448201526064016105d6565b6040518061012001604052808b81526020018a8152602001336001600160a01b03168152602001428152602001898152602001600015158152602001878152602001886005811115611ec757611ec7612c03565b81526020018681525060018b604051611ee09190613142565b90815260405190819003602001902081518190611efd908261320b565b5060208201516001820190611f12908261320b565b5060408201516002820180546001600160a01b0319166001600160a01b039092169190911790556060820151600382015560808201516004820190611f57908261320b565b5060a08201516005808301805492151560ff1993841617905560c0840151600684015560e0840151600784018054919390929116906001908490811115611fa057611fa0612c03565b02179055506101008201516008820190611fba908261320b565b50905050600160028b604051611fd09190613142565b9081526040805160209281900383019020805460ff1916931515939093179092553360009081526003825291822080546001810182559083529120016120168b8261320b565b50600780546001810182556000919091527fa66cc928b5edb82af9bd49922954155ab7b0942694bea4ce44661d9a8736c688016120538b8261320b565b506040513390612064908c90613142565b604051908190038120888252907f228c65a7f785ca93694858b57fcb2e7db07a5ee9e0a7e642452f4684cd91b25c9060200160405180910390a35060019998505050505050505050565b6001600160a01b0383166000908152600360209081526040808320805482518185028101850190935280835260609493849084015b8282101561218f578382906000526020600020018054612102906130f2565b80601f016020809104026020016040519081016040528092919081815260200182805461212e906130f2565b801561217b5780601f106121505761010080835404028352916020019161217b565b820191906000526020600020905b81548152906001019060200180831161215e57829003601f168201915b5050505050815260200190600101906120e3565b505050509050600081516001600160401b038111156121b0576121b0612a37565b6040519080825280602002602001820160405280156121e357816020015b60608152602001906001900390816121ce5790505b5090506000805b835181101561258b57600060018583815181106122095761220961312c565b602002602001015160405161221e9190613142565b908152602001604051809103902060405180610120016040529081600082018054612248906130f2565b80601f0160208091040260200160405190810160405280929190818152602001828054612274906130f2565b80156122c15780601f10612296576101008083540402835291602001916122c1565b820191906000526020600020905b8154815290600101906020018083116122a457829003601f168201915b505050505081526020016001820180546122da906130f2565b80601f0160208091040260200160405190810160405280929190818152602001828054612306906130f2565b80156123535780601f1061232857610100808354040283529160200191612353565b820191906000526020600020905b81548152906001019060200180831161233657829003601f168201915b505050918352505060028201546001600160a01b031660208201526003820154604082015260048201805460609092019161238d906130f2565b80601f01602080910402602001604051908101604052809291908181526020018280546123b9906130f2565b80156124065780601f106123db57610100808354040283529160200191612406565b820191906000526020600020905b8154815290600101906020018083116123e957829003601f168201915b505050918352505060058281015460ff90811615156020840152600684015460408401526007840154606090930192169081111561244657612446612c03565b600581111561245757612457612c03565b815260200160088201805461246b906130f2565b80601f0160208091040260200160405190810160405280929190818152602001828054612497906130f2565b80156124e45780601f106124b9576101008083540402835291602001916124e4565b820191906000526020600020905b8154815290600101906020018083116124c757829003601f168201915b505050505081525050905087600581111561250157612501612c03565b8160e00151600581111561251757612517612c03565b14801561252d575086158061252d57508060a001515b15612578578482815181106125445761254461312c565b602002602001015184848151811061255e5761255e61312c565b602002602001018190525082806125749061315e565b9350505b50806125838161315e565b9150506121ea565b506000816001600160401b038111156125a6576125a6612a37565b6040519080825280602002602001820160405280156125d957816020015b60608152602001906001900390816125c45790505b50905060005b82811015612631578381815181106125f9576125f961312c565b60200260200101518282815181106126135761261361312c565b602002602001018190525080806126299061315e565b9150506125df565b50979650505050505050565b61264561267b565b6001600160a01b03811661266f57604051631e4fbdf760e01b8152600060048201526024016105d6565b612678816126d2565b50565b6000546001600160a01b031633146118785760405163118cdaa760e01b81523360048201526024016105d6565b6000806000806126b88686612722565b9250925092506126c8828261276f565b5090949350505050565b600080546001600160a01b038381166001600160a01b0319831681178455604051919092169283917f8be0079c531659141344cd1fd0a4f28419497f9722a3daafe3b4186f6b6457e09190a35050565b6000806000835160410361275c5760208401516040850151606086015160001a61274e88828585612828565b955095509550505050612768565b50508151600091506002905b9250925092565b600082600381111561278357612783612c03565b0361278c575050565b60018260038111156127a0576127a0612c03565b036127be5760405163f645eedf60e01b815260040160405180910390fd5b60028260038111156127d2576127d2612c03565b036127f35760405163fce698f760e01b8152600481018290526024016105d6565b600382600381111561280757612807612c03565b036106e7576040516335e2f38360e21b8152600481018290526024016105d6565b600080807f7fffffffffffffffffffffffffffffff5d576e7357a4501ddfe92f46681b20a084111561286357506000915060039050826128ed565b604080516000808252602082018084528a905260ff891692820192909252606081018790526080810186905260019060a0016020604051602081039080840390855afa1580156128b7573d6000803e3d6000fd5b5050604051601f1901519150506001600160a01b0381166128e3575060009250600191508290506128ed565b9250600091508190505b9450945094915050565b6040518060c00160405280600081526020016060815260200160006001600160a01b03168152602001600081526020016000600381111561293a5761293a612c03565b8152602001606081525090565b80356001600160a01b038116811461295e57600080fd5b919050565b60006020828403121561297557600080fd5b61297e82612947565b9392505050565b60005b838110156129a0578181015183820152602001612988565b50506000910152565b600081518084526129c1816020860160208601612985565b601f01601f19169290920160200192915050565b6000602080830181845280855180835260408601915060408160051b870101925083870160005b82811015612a2a57603f19888603018452612a188583516129a9565b945092850192908501906001016129fc565b5092979650505050505050565b634e487b7160e01b600052604160045260246000fd5b604051601f8201601f191681016001600160401b0381118282101715612a7557612a75612a37565b604052919050565b600082601f830112612a8e57600080fd5b81356001600160401b03811115612aa757612aa7612a37565b612aba601f8201601f1916602001612a4d565b818152846020838601011115612acf57600080fd5b816020850160208301376000918101602001919091529392505050565b60006020808385031215612aff57600080fd5b82356001600160401b0380821115612b1657600080fd5b818501915085601f830112612b2a57600080fd5b813581811115612b3c57612b3c612a37565b8060051b612b4b858201612a4d565b9182528381018501918581019089841115612b6557600080fd5b86860192505b83831015612ba157823585811115612b835760008081fd5b612b918b89838a0101612a7d565b8352509186019190860190612b6b565b9998505050505050505050565b600060208284031215612bc057600080fd5b81356001600160401b03811115612bd657600080fd5b612be284828501612a7d565b949350505050565b600060208284031215612bfc57600080fd5b5035919050565b634e487b7160e01b600052602160045260246000fd5b60048110612c2957612c29612c03565b9052565b60208152815160208201526000602083015160c06040840152612c5360e08401826129a9565b905060018060a01b036040850151166060840152606084015160808401526080840151612c8360a0850182612c19565b5060a0840151838203601f190160c0850152612c9f82826129a9565b95945050505050565b60008060408385031215612cbb57600080fd5b82356001600160401b03811115612cd157600080fd5b612cdd85828601612a7d565b925050612cec60208401612947565b90509250929050565b60008060408385031215612d0857600080fd5b82356001600160401b03811115612d1e57600080fd5b612d2a85828601612a7d565b95602094909401359450505050565b60208152600061297e60208301846129a9565b60068110612c2957612c29612c03565b6000610120808352612d708184018d6129a9565b90508281036020840152612d84818c6129a9565b6001600160a01b038b166040850152606084018a905283810360808501529050612dae81896129a9565b905086151560a08401528560c0840152612dcb60e0840186612d4c565b828103610100840152612dde81856129a9565b9c9b505050505050505050505050565b86815260c060208201526000612e0760c08301886129a9565b6001600160a01b038716604084015260608301869052612e2a6080840186612c19565b82810360a0840152612ba181856129a9565b600080600060608486031215612e5157600080fd5b83356001600160401b0380821115612e6857600080fd5b612e7487838801612a7d565b9450612e8260208701612947565b93506040860135915080821115612e9857600080fd5b50612ea586828701612a7d565b9150509250925092565b60008060408385031215612ec257600080fd5b82356001600160401b0380821115612ed957600080fd5b612ee586838701612a7d565b93506020850135915080821115612efb57600080fd5b50612f0885828601612a7d565b9150509250929050565b600080600060608486031215612f2757600080fd5b83359250602084013560048110612f3d57600080fd5b915060408401356001600160401b03811115612f5857600080fd5b612ea586828701612a7d565b60008060408385031215612f7757600080fd5b612f8083612947565b946020939093013593505050565b608081526000612fa160808301876129a9565b8281036020840152612fb381876129a9565b915050612fc36040830185612d4c565b82606083015295945050505050565b80356006811061295e57600080fd5b60008060008060008060c08789031215612ffa57600080fd5b86356001600160401b038082111561301157600080fd5b61301d8a838b01612a7d565b9750602089013591508082111561303357600080fd5b61303f8a838b01612a7d565b9650604089013591508082111561305557600080fd5b6130618a838b01612a7d565b955061306f60608a01612fd2565b94506080890135935060a089013591508082111561308c57600080fd5b5061309989828a01612a7d565b9150509295509295509295565b6000806000606084860312156130bb57600080fd5b6130c484612947565b92506130d260208501612fd2565b9150604084013580151581146130e757600080fd5b809150509250925092565b600181811c9082168061310657607f821691505b60208210810361312657634e487b7160e01b600052602260045260246000fd5b50919050565b634e487b7160e01b600052603260045260246000fd5b60008251613154818460208701612985565b9190910192915050565b60006001820161317e57634e487b7160e01b600052601160045260246000fd5b5060010190565b60008351613197818460208801612985565b60609390931b6bffffffffffffffffffffffff19169190920190815260140192915050565b601f82111561320657600081815260208120601f850160051c810160208610156131e35750805b601f850160051c820191505b81811015613202578281556001016131ef565b5050505b505050565b81516001600160401b0381111561322457613224612a37565b6132388161323284546130f2565b846131bc565b602080601f83116001811461326d57600084156132555750858301515b600019600386901b1c1916600185901b178555613202565b600085815260208120601f198616915b8281101561329c5788860151825594840194600190910190840161327d565b50858210156132ba5787850151600019600388901b60f8161c191681555b5050505050600190811b01905550565b6040815260006132dd60408301856129a9565b905060018060a01b03831660208301529392505050565b6000808354613302816130f2565b6001828116801561331a576001811461332f5761335e565b60ff198416875282151583028701945061335e565b8760005260208060002060005b858110156133555781548a82015290840190820161333c565b50505082870194505b50929695505050505050565b60208101610d4b8284612c1956fea2646970667358221220b55fb42a75cce6c15f5c43412bf21dc0be0372ddaf6e541760abedd2dd5ad8a864736f6c63430008140033",
  "linkReferences": {},
  "deployedLinkReferences": {}
}